{
  "_format": "hh3-artifact-1",
  "contractName": "RewardDistributor",
  "sourceName": "contracts/reward-distributor.sol",
  "abi": [
    {
      "inputs": [
        {
          "internalType": "address",
          "name": "_issueTracker",
          "type": "address"
        },
        {
          "internalType": "address",
          "name": "_rewardToken",
          "type": "address"
        }
      ],
      "stateMutability": "nonpayable",
      "type": "constructor"
    },
    {
      "inputs": [
        {
          "internalType": "address",
          "name": "token",
          "type": "address"
        }
      ],
      "name": "SafeERC20FailedOperation",
      "type": "error"
    },
    {
      "anonymous": false,
      "inputs": [
        {
          "indexed": true,
          "internalType": "bytes32",
          "name": "issueId",
          "type": "bytes32"
        },
        {
          "indexed": true,
          "internalType": "address",
          "name": "funder",
          "type": "address"
        },
        {
          "indexed": false,
          "internalType": "uint256",
          "name": "amount",
          "type": "uint256"
        }
      ],
      "name": "FundsDeposited",
      "type": "event"
    },
    {
      "anonymous": false,
      "inputs": [
        {
          "indexed": true,
          "internalType": "bytes32",
          "name": "issueId",
          "type": "bytes32"
        },
        {
          "indexed": true,
          "internalType": "address",
          "name": "funder",
          "type": "address"
        },
        {
          "indexed": false,
          "internalType": "uint256",
          "name": "amount",
          "type": "uint256"
        }
      ],
      "name": "FundsWithdrawn",
      "type": "event"
    },
    {
      "anonymous": false,
      "inputs": [
        {
          "indexed": true,
          "internalType": "bytes32",
          "name": "issueId",
          "type": "bytes32"
        },
        {
          "indexed": true,
          "internalType": "address",
          "name": "contributor",
          "type": "address"
        },
        {
          "indexed": false,
          "internalType": "uint256",
          "name": "amount",
          "type": "uint256"
        }
      ],
      "name": "RewardDistributed",
      "type": "event"
    },
    {
      "inputs": [
        {
          "internalType": "bytes32",
          "name": "issueId",
          "type": "bytes32"
        }
      ],
      "name": "areAllRewardsDistributed",
      "outputs": [
        {
          "internalType": "bool",
          "name": "",
          "type": "bool"
        }
      ],
      "stateMutability": "view",
      "type": "function"
    },
    {
      "inputs": [
        {
          "internalType": "bytes32",
          "name": "issueId",
          "type": "bytes32"
        },
        {
          "internalType": "uint256",
          "name": "amount",
          "type": "uint256"
        }
      ],
      "name": "depositFunds",
      "outputs": [],
      "stateMutability": "nonpayable",
      "type": "function"
    },
    {
      "inputs": [
        {
          "internalType": "bytes32",
          "name": "issueId",
          "type": "bytes32"
        }
      ],
      "name": "distributeAllRewards",
      "outputs": [],
      "stateMutability": "nonpayable",
      "type": "function"
    },
    {
      "inputs": [
        {
          "internalType": "bytes32",
          "name": "issueId",
          "type": "bytes32"
        },
        {
          "internalType": "address",
          "name": "contributor",
          "type": "address"
        }
      ],
      "name": "distributeReward",
      "outputs": [],
      "stateMutability": "nonpayable",
      "type": "function"
    },
    {
      "inputs": [
        {
          "internalType": "bytes32",
          "name": "",
          "type": "bytes32"
        },
        {
          "internalType": "address",
          "name": "",
          "type": "address"
        }
      ],
      "name": "distributedRewards",
      "outputs": [
        {
          "internalType": "uint256",
          "name": "",
          "type": "uint256"
        }
      ],
      "stateMutability": "view",
      "type": "function"
    },
    {
      "inputs": [
        {
          "internalType": "string",
          "name": "owner",
          "type": "string"
        },
        {
          "internalType": "string",
          "name": "repo",
          "type": "string"
        },
        {
          "internalType": "uint256",
          "name": "issueNumber",
          "type": "uint256"
        },
        {
          "internalType": "uint256",
          "name": "amount",
          "type": "uint256"
        }
      ],
      "name": "fundIssue",
      "outputs": [
        {
          "internalType": "bytes32",
          "name": "",
          "type": "bytes32"
        }
      ],
      "stateMutability": "nonpayable",
      "type": "function"
    },
    {
      "inputs": [
        {
          "internalType": "bytes32",
          "name": "issueId",
          "type": "bytes32"
        }
      ],
      "name": "getIssueBalance",
      "outputs": [
        {
          "internalType": "uint256",
          "name": "",
          "type": "uint256"
        }
      ],
      "stateMutability": "view",
      "type": "function"
    },
    {
      "inputs": [
        {
          "internalType": "bytes32",
          "name": "issueId",
          "type": "bytes32"
        },
        {
          "internalType": "address",
          "name": "contributor",
          "type": "address"
        }
      ],
      "name": "getPendingReward",
      "outputs": [
        {
          "internalType": "uint256",
          "name": "",
          "type": "uint256"
        }
      ],
      "stateMutability": "view",
      "type": "function"
    },
    {
      "inputs": [
        {
          "internalType": "bytes32",
          "name": "issueId",
          "type": "bytes32"
        }
      ],
      "name": "getTotalPendingRewards",
      "outputs": [
        {
          "internalType": "uint256",
          "name": "",
          "type": "uint256"
        }
      ],
      "stateMutability": "view",
      "type": "function"
    },
    {
      "inputs": [
        {
          "internalType": "bytes32",
          "name": "",
          "type": "bytes32"
        }
      ],
      "name": "issueFunds",
      "outputs": [
        {
          "internalType": "uint256",
          "name": "",
          "type": "uint256"
        }
      ],
      "stateMutability": "view",
      "type": "function"
    },
    {
      "inputs": [],
      "name": "issueTracker",
      "outputs": [
        {
          "internalType": "contract IssueTracker",
          "name": "",
          "type": "address"
        }
      ],
      "stateMutability": "view",
      "type": "function"
    },
    {
      "inputs": [],
      "name": "rewardToken",
      "outputs": [
        {
          "internalType": "contract IERC20",
          "name": "",
          "type": "address"
        }
      ],
      "stateMutability": "view",
      "type": "function"
    }
  ],
  "bytecode": "0x608060405234801561000f575f5ffd5b5060405161139838038061139883398101604081905261002e9161012a565b6001600160a01b0382166100895760405162461bcd60e51b815260206004820152601d60248201527f496e76616c696420697373756520747261636b6572206164647265737300000060448201526064015b60405180910390fd5b6001600160a01b0381166100df5760405162461bcd60e51b815260206004820152601560248201527f496e76616c696420746f6b656e206164647265737300000000000000000000006044820152606401610080565b5f80546001600160a01b039384166001600160a01b0319918216179091556001805492909316911617905561015b565b80516001600160a01b0381168114610125575f5ffd5b919050565b5f5f6040838503121561013b575f5ffd5b6101448361010f565b91506101526020840161010f565b90509250929050565b611230806101685f395ff3fe608060405234801561000f575f5ffd5b50600436106100b1575f3560e01c8063856bd58d1161006e578063856bd58d1461015f5780638c45e6b014610172578063a939e53c14610185578063ac48bffb146101a8578063bddcd754146101d2578063f7c618c1146101f1575f5ffd5b80630692be99146100b55780631477bd90146100e757806323f86d5a146100fc5780634471836714610126578063565871c01461013957806369608a311461014c575b5f5ffd5b6100d46100c3366004610db9565b60026020525f908152604090205481565b6040519081526020015b60405180910390f35b6100fa6100f5366004610dd0565b610204565b005b5f5461010e906001600160a01b031681565b6040516001600160a01b0390911681526020016100de565b6100fa610134366004610db9565b6102cd565b6100d4610147366004610db9565b6103c9565b6100d461015a366004610e07565b610483565b6100d461016d366004610ef3565b61062c565b6100fa610180366004610e07565b6107f8565b610198610193366004610db9565b610bb7565b60405190151581526020016100de565b6100d46101b6366004610e07565b600360209081525f928352604080842090915290825290205481565b6100d46101e0366004610db9565b5f9081526002602052604090205490565b60015461010e906001600160a01b031681565b5f81116102585760405162461bcd60e51b815260206004820152601d60248201527f416d6f756e74206d7573742062652067726561746572207468616e203000000060448201526064015b60405180910390fd5b600154610270906001600160a01b0316333084610caf565b5f828152600260205260408120805483929061028d908490610f7b565b9091555050604051818152339083907f6221f2b1a766e0a60a83a05c2ca8be3bf4b8028dbcb5b67624f5392a07372ae39060200160405180910390a35050565b5f8054604051630903c5f960e31b8152600481018490526001600160a01b039091169063481e2fc8906024015f60405180830381865afa158015610313573d5f5f3e3d5ffd5b505050506040513d5f823e601f3d908101601f1916820160405261033a9190810190610f8e565b90505f5b81518110156103c45760035f8481526020019081526020015f205f83838151811061036b5761036b611042565b60200260200101516001600160a01b03166001600160a01b031681526020019081526020015f20545f036103bc576103bc838383815181106103af576103af611042565b60200260200101516107f8565b60010161033e565b505050565b5f8054604051630903c5f960e31b81526004810184905282916001600160a01b03169063481e2fc8906024015f60405180830381865afa15801561040f573d5f5f3e3d5ffd5b505050506040513d5f823e601f3d908101601f191682016040526104369190810190610f8e565b90505f805b825181101561047b576104678584838151811061045a5761045a611042565b6020026020010151610483565b6104719083610f7b565b915060010161043b565b509392505050565b5f8054604051621ba84760e91b8152600481018590526001600160a01b038481166024830152909116906337508e0090604401602060405180830381865afa1580156104d1573d5f5f3e3d5ffd5b505050506040513d601f19601f820116820180604052508101906104f5919061106a565b61050057505f610626565b5f8381526003602090815260408083206001600160a01b03861684529091529020541561052e57505f610626565b5f8054604051633d3f3fe960e21b8152600481018690526001600160a01b039091169063f4fcffa4906024015f60405180830381865afa158015610574573d5f5f3e3d5ffd5b505050506040513d5f823e601f3d908101601f1916820160405261059b91908101906110d7565b50945050505050806105b0575f915050610626565b5f5460405163250cfd7160e01b8152600481018690526001600160a01b0385811660248301529091169063250cfd7190604401602060405180830381865afa1580156105fe573d5f5f3e3d5ffd5b505050506040513d601f19601f82011682018060405250810190610622919061116d565b9150505b92915050565b5f5f821161067c5760405162461bcd60e51b815260206004820152601d60248201527f416d6f756e74206d7573742062652067726561746572207468616e2030000000604482015260640161024f565b5f8054604051634ae2ee3f60e11b81526001600160a01b03909116906395c5dc7e906106b0908990899089906004016111b2565b602060405180830381865afa1580156106cb573d5f5f3e3d5ffd5b505050506040513d601f19601f820116820180604052508101906106ef919061116d565b5f8054604051633d3f3fe960e21b81526004810184905292935090916001600160a01b039091169063f4fcffa4906024015f60405180830381865afa15801561073a573d5f5f3e3d5ffd5b505050506040513d5f823e601f3d908101601f1916820160405261076191908101906110d7565b50505092505050805f036107e4575f546040516301d012f960e71b81526001600160a01b039091169063e8097c80906107a2908a908a908a906004016111b2565b6020604051808303815f875af11580156107be573d5f5f3e3d5ffd5b505050506040513d601f19601f820116820180604052508101906107e2919061116d565b505b6107ee8285610204565b5095945050505050565b5f54604051621ba84760e91b8152600481018490526001600160a01b038381166024830152909116906337508e0090604401602060405180830381865afa158015610845573d5f5f3e3d5ffd5b505050506040513d601f19601f82011682018060405250810190610869919061106a565b6108a95760405162461bcd60e51b81526020600482015260116024820152702737ba10309031b7b73a3934b13aba37b960791b604482015260640161024f565b5f8054604051633d3f3fe960e21b8152600481018590526001600160a01b039091169063f4fcffa4906024015f60405180830381865afa1580156108ef573d5f5f3e3d5ffd5b505050506040513d5f823e601f3d908101601f1916820160405261091691908101906110d7565b50945050505050806109835760405162461bcd60e51b815260206004820152603060248201527f4973737565206d75737420626520636c6f736564206265666f7265206469737460448201526f7269627574696e67207265776172647360801b606482015260840161024f565b5f805460405163250cfd7160e01b8152600481018690526001600160a01b0385811660248301529091169063250cfd7190604401602060405180830381865afa1580156109d2573d5f5f3e3d5ffd5b505050506040513d601f19601f820116820180604052508101906109f6919061116d565b90505f8111610a475760405162461bcd60e51b815260206004820152601760248201527f4e6f2072657761726420746f2064697374726962757465000000000000000000604482015260640161024f565b5f8481526003602090815260408083206001600160a01b038716845290915290205415610ab65760405162461bcd60e51b815260206004820152601a60248201527f52657761726420616c7265616479206469737472696275746564000000000000604482015260640161024f565b5f84815260026020526040902054811115610b135760405162461bcd60e51b815260206004820152601e60248201527f496e73756666696369656e742066756e647320696e20636f6e74726163740000604482015260640161024f565b5f8481526003602090815260408083206001600160a01b03871684528252808320849055868352600290915281208054839290610b519084906111e7565b9091555050600154610b6d906001600160a01b03168483610d1c565b826001600160a01b0316847f8fa6abe1348f6561b9a60363efc5793e820b343dce49d00e37d01644d9268a7783604051610ba991815260200190565b60405180910390a350505050565b5f8054604051630903c5f960e31b81526004810184905282916001600160a01b03169063481e2fc8906024015f60405180830381865afa158015610bfd573d5f5f3e3d5ffd5b505050506040513d5f823e601f3d908101601f19168201604052610c249190810190610f8e565b905080515f03610c375750600192915050565b5f5b8151811015610ca55760035f8581526020019081526020015f205f838381518110610c6657610c66611042565b60200260200101516001600160a01b03166001600160a01b031681526020019081526020015f20545f03610c9d57505f9392505050565b600101610c39565b5060019392505050565b6040516001600160a01b038481166024830152838116604483015260648201839052610d169186918216906323b872dd906084015b604051602081830303815290604052915060e01b6020820180516001600160e01b038381831617835250505050610d4d565b50505050565b6040516001600160a01b038381166024830152604482018390526103c491859182169063a9059cbb90606401610ce4565b5f5f60205f8451602086015f885af180610d6c576040513d5f823e3d81fd5b50505f513d91508115610d83578060011415610d90565b6001600160a01b0384163b155b15610d1657604051635274afe760e01b81526001600160a01b038516600482015260240161024f565b5f60208284031215610dc9575f5ffd5b5035919050565b5f5f60408385031215610de1575f5ffd5b50508035926020909101359150565b6001600160a01b0381168114610e04575f5ffd5b50565b5f5f60408385031215610e18575f5ffd5b823591506020830135610e2a81610df0565b809150509250929050565b634e487b7160e01b5f52604160045260245ffd5b604051601f8201601f1916810167ffffffffffffffff81118282101715610e7257610e72610e35565b604052919050565b5f67ffffffffffffffff821115610e9357610e93610e35565b50601f01601f191660200190565b5f82601f830112610eb0575f5ffd5b8135610ec3610ebe82610e7a565b610e49565b818152846020838601011115610ed7575f5ffd5b816020850160208301375f918101602001919091529392505050565b5f5f5f5f60808587031215610f06575f5ffd5b843567ffffffffffffffff811115610f1c575f5ffd5b610f2887828801610ea1565b945050602085013567ffffffffffffffff811115610f44575f5ffd5b610f5087828801610ea1565b949794965050505060408301359260600135919050565b634e487b7160e01b5f52601160045260245ffd5b8082018082111561062657610626610f67565b5f60208284031215610f9e575f5ffd5b815167ffffffffffffffff811115610fb4575f5ffd5b8201601f81018413610fc4575f5ffd5b805167ffffffffffffffff811115610fde57610fde610e35565b8060051b610fee60208201610e49565b91825260208184018101929081019087841115611009575f5ffd5b6020850194505b83851015611037578451925061102583610df0565b82825260209485019490910190611010565b979650505050505050565b634e487b7160e01b5f52603260045260245ffd5b80518015158114611065575f5ffd5b919050565b5f6020828403121561107a575f5ffd5b61108382611056565b9392505050565b5f82601f830112611099575f5ffd5b81516110a7610ebe82610e7a565b8181528460208386010111156110bb575f5ffd5b8160208501602083015e5f918101602001919091529392505050565b5f5f5f5f5f5f60c087890312156110ec575f5ffd5b865167ffffffffffffffff811115611102575f5ffd5b61110e89828a0161108a565b965050602087015167ffffffffffffffff81111561112a575f5ffd5b61113689828a0161108a565b604089015160608a015191975095509350611155905060808801611056565b91505f60a08801519050809150509295509295509295565b5f6020828403121561117d575f5ffd5b5051919050565b5f81518084528060208401602086015e5f602082860101526020601f19601f83011685010191505092915050565b606081525f6111c46060830186611184565b82810360208401526111d68186611184565b915050826040830152949350505050565b8181038181111561062657610626610f6756fea2646970667358221220e6214e4f451e21da068ba67c53a4c0a9dce781fd669d04e20fabe5a053ec360c64736f6c634300081c0033",
  "linkReferences": {},
  "deployedLinkReferences": {},
  "immutableReferences": {},
  "inputSourceName": "project/contracts/reward-distributor.sol",
  "buildInfoId": "solc-0_8_28-f500d932ffd2b612e159101d330bccc6c25610ec"
}