{
  "_format": "hh3-artifact-1",
  "contractName": "RewardDistributor",
  "sourceName": "contracts/reward-distributor.sol",
  "abi": [
    {
      "inputs": [
        {
          "internalType": "address",
          "name": "_issueTracker",
          "type": "address"
        },
        {
          "internalType": "address",
          "name": "_rewardToken",
          "type": "address"
        }
      ],
      "stateMutability": "nonpayable",
      "type": "constructor"
    },
    {
      "inputs": [
        {
          "internalType": "address",
          "name": "token",
          "type": "address"
        }
      ],
      "name": "SafeERC20FailedOperation",
      "type": "error"
    },
    {
      "anonymous": false,
      "inputs": [
        {
          "indexed": true,
          "internalType": "bytes32",
          "name": "issueId",
          "type": "bytes32"
        },
        {
          "indexed": true,
          "internalType": "address",
          "name": "funder",
          "type": "address"
        },
        {
          "indexed": false,
          "internalType": "uint256",
          "name": "amount",
          "type": "uint256"
        }
      ],
      "name": "FundsDeposited",
      "type": "event"
    },
    {
      "anonymous": false,
      "inputs": [
        {
          "indexed": true,
          "internalType": "bytes32",
          "name": "issueId",
          "type": "bytes32"
        },
        {
          "indexed": true,
          "internalType": "address",
          "name": "funder",
          "type": "address"
        },
        {
          "indexed": false,
          "internalType": "uint256",
          "name": "amount",
          "type": "uint256"
        }
      ],
      "name": "FundsWithdrawn",
      "type": "event"
    },
    {
      "anonymous": false,
      "inputs": [
        {
          "indexed": true,
          "internalType": "bytes32",
          "name": "issueId",
          "type": "bytes32"
        },
        {
          "indexed": true,
          "internalType": "address",
          "name": "contributor",
          "type": "address"
        },
        {
          "indexed": false,
          "internalType": "uint256",
          "name": "amount",
          "type": "uint256"
        }
      ],
      "name": "RewardDistributed",
      "type": "event"
    },
    {
      "inputs": [
        {
          "internalType": "bytes32",
          "name": "issueId",
          "type": "bytes32"
        }
      ],
      "name": "areAllRewardsDistributed",
      "outputs": [
        {
          "internalType": "bool",
          "name": "",
          "type": "bool"
        }
      ],
      "stateMutability": "view",
      "type": "function"
    },
    {
      "inputs": [
        {
          "internalType": "bytes32",
          "name": "issueId",
          "type": "bytes32"
        },
        {
          "internalType": "uint256",
          "name": "amount",
          "type": "uint256"
        }
      ],
      "name": "depositFunds",
      "outputs": [],
      "stateMutability": "nonpayable",
      "type": "function"
    },
    {
      "inputs": [
        {
          "internalType": "bytes32",
          "name": "issueId",
          "type": "bytes32"
        }
      ],
      "name": "distributeAllRewards",
      "outputs": [],
      "stateMutability": "nonpayable",
      "type": "function"
    },
    {
      "inputs": [
        {
          "internalType": "bytes32",
          "name": "issueId",
          "type": "bytes32"
        },
        {
          "internalType": "address",
          "name": "contributor",
          "type": "address"
        }
      ],
      "name": "distributeReward",
      "outputs": [],
      "stateMutability": "nonpayable",
      "type": "function"
    },
    {
      "inputs": [
        {
          "internalType": "bytes32",
          "name": "",
          "type": "bytes32"
        },
        {
          "internalType": "address",
          "name": "",
          "type": "address"
        }
      ],
      "name": "distributedRewards",
      "outputs": [
        {
          "internalType": "uint256",
          "name": "",
          "type": "uint256"
        }
      ],
      "stateMutability": "view",
      "type": "function"
    },
    {
      "inputs": [
        {
          "internalType": "string",
          "name": "owner",
          "type": "string"
        },
        {
          "internalType": "string",
          "name": "repo",
          "type": "string"
        },
        {
          "internalType": "uint256",
          "name": "issueNumber",
          "type": "uint256"
        },
        {
          "internalType": "uint256",
          "name": "amount",
          "type": "uint256"
        }
      ],
      "name": "fundIssue",
      "outputs": [
        {
          "internalType": "bytes32",
          "name": "",
          "type": "bytes32"
        }
      ],
      "stateMutability": "nonpayable",
      "type": "function"
    },
    {
      "inputs": [
        {
          "internalType": "bytes32",
          "name": "issueId",
          "type": "bytes32"
        }
      ],
      "name": "getIssueBalance",
      "outputs": [
        {
          "internalType": "uint256",
          "name": "",
          "type": "uint256"
        }
      ],
      "stateMutability": "view",
      "type": "function"
    },
    {
      "inputs": [
        {
          "internalType": "bytes32",
          "name": "issueId",
          "type": "bytes32"
        },
        {
          "internalType": "address",
          "name": "contributor",
          "type": "address"
        }
      ],
      "name": "getPendingReward",
      "outputs": [
        {
          "internalType": "uint256",
          "name": "",
          "type": "uint256"
        }
      ],
      "stateMutability": "view",
      "type": "function"
    },
    {
      "inputs": [
        {
          "internalType": "bytes32",
          "name": "issueId",
          "type": "bytes32"
        }
      ],
      "name": "getTotalPendingRewards",
      "outputs": [
        {
          "internalType": "uint256",
          "name": "",
          "type": "uint256"
        }
      ],
      "stateMutability": "view",
      "type": "function"
    },
    {
      "inputs": [
        {
          "internalType": "bytes32",
          "name": "",
          "type": "bytes32"
        }
      ],
      "name": "issueFunds",
      "outputs": [
        {
          "internalType": "uint256",
          "name": "",
          "type": "uint256"
        }
      ],
      "stateMutability": "view",
      "type": "function"
    },
    {
      "inputs": [],
      "name": "issueTracker",
      "outputs": [
        {
          "internalType": "contract IssueTracker",
          "name": "",
          "type": "address"
        }
      ],
      "stateMutability": "view",
      "type": "function"
    },
    {
      "inputs": [],
      "name": "rewardToken",
      "outputs": [
        {
          "internalType": "contract IERC20",
          "name": "",
          "type": "address"
        }
      ],
      "stateMutability": "view",
      "type": "function"
    }
  ],
  "bytecode": "0x608060405234801561000f575f5ffd5b506040516114dc3803806114dc83398101604081905261002e9161012a565b6001600160a01b0382166100895760405162461bcd60e51b815260206004820152601d60248201527f496e76616c696420697373756520747261636b6572206164647265737300000060448201526064015b60405180910390fd5b6001600160a01b0381166100df5760405162461bcd60e51b815260206004820152601560248201527f496e76616c696420746f6b656e206164647265737300000000000000000000006044820152606401610080565b5f80546001600160a01b039384166001600160a01b0319918216179091556001805492909316911617905561015b565b80516001600160a01b0381168114610125575f5ffd5b919050565b5f5f6040838503121561013b575f5ffd5b6101448361010f565b91506101526020840161010f565b90509250929050565b611374806101685f395ff3fe608060405234801561000f575f5ffd5b50600436106100b1575f3560e01c8063856bd58d1161006e578063856bd58d1461015f5780638c45e6b014610172578063a939e53c14610185578063ac48bffb146101a8578063bddcd754146101d2578063f7c618c1146101f1575f5ffd5b80630692be99146100b55780631477bd90146100e757806323f86d5a146100fc5780634471836714610126578063565871c01461013957806369608a311461014c575b5f5ffd5b6100d46100c3366004610efd565b60026020525f908152604090205481565b6040519081526020015b60405180910390f35b6100fa6100f5366004610f14565b610204565b005b5f5461010e906001600160a01b031681565b6040516001600160a01b0390911681526020016100de565b6100fa610134366004610efd565b610411565b6100d4610147366004610efd565b61050d565b6100d461015a366004610f4b565b6105c7565b6100d461016d366004611037565b610770565b6100fa610180366004610f4b565b61093c565b610198610193366004610efd565b610cfb565b60405190151581526020016100de565b6100d46101b6366004610f4b565b600360209081525f928352604080842090915290825290205481565b6100d46101e0366004610efd565b5f9081526002602052604090205490565b60015461010e906001600160a01b031681565b5f81116102585760405162461bcd60e51b815260206004820152601d60248201527f416d6f756e74206d7573742062652067726561746572207468616e203000000060448201526064015b60405180910390fd5b5f8054604051633d3f3fe960e21b8152600481018590526001600160a01b039091169063f4fcffa4906024015f60405180830381865afa15801561029e573d5f5f3e3d5ffd5b505050506040513d5f823e601f3d908101601f191682016040526102c5919081019061110c565b50505092505050805f036103365760405162461bcd60e51b815260206004820152603260248201527f4973737565206e6f7420726567697374657265642e20506c656173652072656760448201527134b9ba32b91034b9b9bab2903334b939ba1760711b606482015260840161024f565b60015461034e906001600160a01b0316333085610df3565b5f838152600260205260408120805484929061036b9084906111b6565b90915550505f54604051634608d19760e11b815260048101859052336024820152604481018490526001600160a01b0390911690638c11a32e906064015f604051808303815f87803b1580156103bf575f5ffd5b505af11580156103d1573d5f5f3e3d5ffd5b50506040518481523392508591507f6221f2b1a766e0a60a83a05c2ca8be3bf4b8028dbcb5b67624f5392a07372ae39060200160405180910390a3505050565b5f8054604051630903c5f960e31b8152600481018490526001600160a01b039091169063481e2fc8906024015f60405180830381865afa158015610457573d5f5f3e3d5ffd5b505050506040513d5f823e601f3d908101601f1916820160405261047e91908101906111c9565b90505f5b81518110156105085760035f8481526020019081526020015f205f8383815181106104af576104af61127d565b60200260200101516001600160a01b03166001600160a01b031681526020019081526020015f20545f0361050057610500838383815181106104f3576104f361127d565b602002602001015161093c565b600101610482565b505050565b5f8054604051630903c5f960e31b81526004810184905282916001600160a01b03169063481e2fc8906024015f60405180830381865afa158015610553573d5f5f3e3d5ffd5b505050506040513d5f823e601f3d908101601f1916820160405261057a91908101906111c9565b90505f805b82518110156105bf576105ab8584838151811061059e5761059e61127d565b60200260200101516105c7565b6105b590836111b6565b915060010161057f565b509392505050565b5f8054604051621ba84760e91b8152600481018590526001600160a01b038481166024830152909116906337508e0090604401602060405180830381865afa158015610615573d5f5f3e3d5ffd5b505050506040513d601f19601f820116820180604052508101906106399190611291565b61064457505f61076a565b5f8381526003602090815260408083206001600160a01b03861684529091529020541561067257505f61076a565b5f8054604051633d3f3fe960e21b8152600481018690526001600160a01b039091169063f4fcffa4906024015f60405180830381865afa1580156106b8573d5f5f3e3d5ffd5b505050506040513d5f823e601f3d908101601f191682016040526106df919081019061110c565b50945050505050806106f4575f91505061076a565b5f5460405163250cfd7160e01b8152600481018690526001600160a01b0385811660248301529091169063250cfd7190604401602060405180830381865afa158015610742573d5f5f3e3d5ffd5b505050506040513d601f19601f8201168201806040525081019061076691906112b1565b9150505b92915050565b5f5f82116107c05760405162461bcd60e51b815260206004820152601d60248201527f416d6f756e74206d7573742062652067726561746572207468616e2030000000604482015260640161024f565b5f8054604051634ae2ee3f60e11b81526001600160a01b03909116906395c5dc7e906107f4908990899089906004016112f6565b602060405180830381865afa15801561080f573d5f5f3e3d5ffd5b505050506040513d601f19601f8201168201806040525081019061083391906112b1565b5f8054604051633d3f3fe960e21b81526004810184905292935090916001600160a01b039091169063f4fcffa4906024015f60405180830381865afa15801561087e573d5f5f3e3d5ffd5b505050506040513d5f823e601f3d908101601f191682016040526108a5919081019061110c565b50505092505050805f03610928575f546040516301d012f960e71b81526001600160a01b039091169063e8097c80906108e6908a908a908a906004016112f6565b6020604051808303815f875af1158015610902573d5f5f3e3d5ffd5b505050506040513d601f19601f8201168201806040525081019061092691906112b1565b505b6109328285610204565b5095945050505050565b5f54604051621ba84760e91b8152600481018490526001600160a01b038381166024830152909116906337508e0090604401602060405180830381865afa158015610989573d5f5f3e3d5ffd5b505050506040513d601f19601f820116820180604052508101906109ad9190611291565b6109ed5760405162461bcd60e51b81526020600482015260116024820152702737ba10309031b7b73a3934b13aba37b960791b604482015260640161024f565b5f8054604051633d3f3fe960e21b8152600481018590526001600160a01b039091169063f4fcffa4906024015f60405180830381865afa158015610a33573d5f5f3e3d5ffd5b505050506040513d5f823e601f3d908101601f19168201604052610a5a919081019061110c565b5094505050505080610ac75760405162461bcd60e51b815260206004820152603060248201527f4973737565206d75737420626520636c6f736564206265666f7265206469737460448201526f7269627574696e67207265776172647360801b606482015260840161024f565b5f805460405163250cfd7160e01b8152600481018690526001600160a01b0385811660248301529091169063250cfd7190604401602060405180830381865afa158015610b16573d5f5f3e3d5ffd5b505050506040513d601f19601f82011682018060405250810190610b3a91906112b1565b90505f8111610b8b5760405162461bcd60e51b815260206004820152601760248201527f4e6f2072657761726420746f2064697374726962757465000000000000000000604482015260640161024f565b5f8481526003602090815260408083206001600160a01b038716845290915290205415610bfa5760405162461bcd60e51b815260206004820152601a60248201527f52657761726420616c7265616479206469737472696275746564000000000000604482015260640161024f565b5f84815260026020526040902054811115610c575760405162461bcd60e51b815260206004820152601e60248201527f496e73756666696369656e742066756e647320696e20636f6e74726163740000604482015260640161024f565b5f8481526003602090815260408083206001600160a01b03871684528252808320849055868352600290915281208054839290610c9590849061132b565b9091555050600154610cb1906001600160a01b03168483610e60565b826001600160a01b0316847f8fa6abe1348f6561b9a60363efc5793e820b343dce49d00e37d01644d9268a7783604051610ced91815260200190565b60405180910390a350505050565b5f8054604051630903c5f960e31b81526004810184905282916001600160a01b03169063481e2fc8906024015f60405180830381865afa158015610d41573d5f5f3e3d5ffd5b505050506040513d5f823e601f3d908101601f19168201604052610d6891908101906111c9565b905080515f03610d7b5750600192915050565b5f5b8151811015610de95760035f8581526020019081526020015f205f838381518110610daa57610daa61127d565b60200260200101516001600160a01b03166001600160a01b031681526020019081526020015f20545f03610de157505f9392505050565b600101610d7d565b5060019392505050565b6040516001600160a01b038481166024830152838116604483015260648201839052610e5a9186918216906323b872dd906084015b604051602081830303815290604052915060e01b6020820180516001600160e01b038381831617835250505050610e91565b50505050565b6040516001600160a01b0383811660248301526044820183905261050891859182169063a9059cbb90606401610e28565b5f5f60205f8451602086015f885af180610eb0576040513d5f823e3d81fd5b50505f513d91508115610ec7578060011415610ed4565b6001600160a01b0384163b155b15610e5a57604051635274afe760e01b81526001600160a01b038516600482015260240161024f565b5f60208284031215610f0d575f5ffd5b5035919050565b5f5f60408385031215610f25575f5ffd5b50508035926020909101359150565b6001600160a01b0381168114610f48575f5ffd5b50565b5f5f60408385031215610f5c575f5ffd5b823591506020830135610f6e81610f34565b809150509250929050565b634e487b7160e01b5f52604160045260245ffd5b604051601f8201601f1916810167ffffffffffffffff81118282101715610fb657610fb6610f79565b604052919050565b5f67ffffffffffffffff821115610fd757610fd7610f79565b50601f01601f191660200190565b5f82601f830112610ff4575f5ffd5b813561100761100282610fbe565b610f8d565b81815284602083860101111561101b575f5ffd5b816020850160208301375f918101602001919091529392505050565b5f5f5f5f6080858703121561104a575f5ffd5b843567ffffffffffffffff811115611060575f5ffd5b61106c87828801610fe5565b945050602085013567ffffffffffffffff811115611088575f5ffd5b61109487828801610fe5565b949794965050505060408301359260600135919050565b5f82601f8301126110ba575f5ffd5b81516110c861100282610fbe565b8181528460208386010111156110dc575f5ffd5b8160208501602083015e5f918101602001919091529392505050565b80518015158114611107575f5ffd5b919050565b5f5f5f5f5f5f60c08789031215611121575f5ffd5b865167ffffffffffffffff811115611137575f5ffd5b61114389828a016110ab565b965050602087015167ffffffffffffffff81111561115f575f5ffd5b61116b89828a016110ab565b604089015160608a01519197509550935061118a9050608088016110f8565b91505f60a08801519050809150509295509295509295565b634e487b7160e01b5f52601160045260245ffd5b8082018082111561076a5761076a6111a2565b5f602082840312156111d9575f5ffd5b815167ffffffffffffffff8111156111ef575f5ffd5b8201601f810184136111ff575f5ffd5b805167ffffffffffffffff81111561121957611219610f79565b8060051b61122960208201610f8d565b91825260208184018101929081019087841115611244575f5ffd5b6020850194505b83851015611272578451925061126083610f34565b8282526020948501949091019061124b565b979650505050505050565b634e487b7160e01b5f52603260045260245ffd5b5f602082840312156112a1575f5ffd5b6112aa826110f8565b9392505050565b5f602082840312156112c1575f5ffd5b5051919050565b5f81518084528060208401602086015e5f602082860101526020601f19601f83011685010191505092915050565b606081525f61130860608301866112c8565b828103602084015261131a81866112c8565b915050826040830152949350505050565b8181038181111561076a5761076a6111a256fea26469706673582212201c88ae91e67f4fb98d9e4380debc2638a0ad234730d71c3d77324bf637c112a564736f6c634300081c0033",
  "linkReferences": {},
  "deployedLinkReferences": {},
  "immutableReferences": {},
  "inputSourceName": "project/contracts/reward-distributor.sol",
  "buildInfoId": "solc-0_8_28-7852936cc044f240fc65b5e88b01b15d5027a327"
}