{
  "_format": "hh3-artifact-1",
  "contractName": "IssueTracker",
  "sourceName": "contracts/issue-tracker.sol",
  "abi": [
    {
      "inputs": [
        {
          "internalType": "address",
          "name": "_rewardToken",
          "type": "address"
        }
      ],
      "stateMutability": "nonpayable",
      "type": "constructor"
    },
    {
      "anonymous": false,
      "inputs": [
        {
          "indexed": true,
          "internalType": "bytes32",
          "name": "issueId",
          "type": "bytes32"
        },
        {
          "indexed": true,
          "internalType": "address",
          "name": "contributor",
          "type": "address"
        }
      ],
      "name": "ContributorAdded",
      "type": "event"
    },
    {
      "anonymous": false,
      "inputs": [
        {
          "indexed": true,
          "internalType": "bytes32",
          "name": "issueId",
          "type": "bytes32"
        }
      ],
      "name": "IssueClosed",
      "type": "event"
    },
    {
      "anonymous": false,
      "inputs": [
        {
          "indexed": true,
          "internalType": "bytes32",
          "name": "issueId",
          "type": "bytes32"
        },
        {
          "indexed": true,
          "internalType": "address",
          "name": "funder",
          "type": "address"
        },
        {
          "indexed": false,
          "internalType": "uint256",
          "name": "amount",
          "type": "uint256"
        }
      ],
      "name": "IssueFunded",
      "type": "event"
    },
    {
      "anonymous": false,
      "inputs": [
        {
          "indexed": true,
          "internalType": "bytes32",
          "name": "issueId",
          "type": "bytes32"
        },
        {
          "indexed": false,
          "internalType": "string",
          "name": "owner",
          "type": "string"
        },
        {
          "indexed": false,
          "internalType": "string",
          "name": "repo",
          "type": "string"
        },
        {
          "indexed": false,
          "internalType": "uint256",
          "name": "issueNumber",
          "type": "uint256"
        }
      ],
      "name": "IssueRegistered",
      "type": "event"
    },
    {
      "inputs": [
        {
          "internalType": "bytes32",
          "name": "issueId",
          "type": "bytes32"
        },
        {
          "internalType": "address",
          "name": "contributor",
          "type": "address"
        }
      ],
      "name": "addContributor",
      "outputs": [],
      "stateMutability": "nonpayable",
      "type": "function"
    },
    {
      "inputs": [
        {
          "internalType": "bytes32",
          "name": "issueId",
          "type": "bytes32"
        },
        {
          "internalType": "address[]",
          "name": "contributors",
          "type": "address[]"
        }
      ],
      "name": "addContributors",
      "outputs": [],
      "stateMutability": "nonpayable",
      "type": "function"
    },
    {
      "inputs": [
        {
          "internalType": "uint256",
          "name": "",
          "type": "uint256"
        }
      ],
      "name": "allIssueIds",
      "outputs": [
        {
          "internalType": "bytes32",
          "name": "",
          "type": "bytes32"
        }
      ],
      "stateMutability": "view",
      "type": "function"
    },
    {
      "inputs": [
        {
          "internalType": "bytes32",
          "name": "issueId",
          "type": "bytes32"
        },
        {
          "internalType": "address",
          "name": "contributor",
          "type": "address"
        }
      ],
      "name": "calculateReward",
      "outputs": [
        {
          "internalType": "uint256",
          "name": "",
          "type": "uint256"
        }
      ],
      "stateMutability": "view",
      "type": "function"
    },
    {
      "inputs": [
        {
          "internalType": "bytes32",
          "name": "issueId",
          "type": "bytes32"
        }
      ],
      "name": "closeIssue",
      "outputs": [],
      "stateMutability": "nonpayable",
      "type": "function"
    },
    {
      "inputs": [
        {
          "internalType": "bytes32",
          "name": "",
          "type": "bytes32"
        },
        {
          "internalType": "address",
          "name": "",
          "type": "address"
        }
      ],
      "name": "funderAmounts",
      "outputs": [
        {
          "internalType": "uint256",
          "name": "",
          "type": "uint256"
        }
      ],
      "stateMutability": "view",
      "type": "function"
    },
    {
      "inputs": [
        {
          "internalType": "string",
          "name": "owner",
          "type": "string"
        },
        {
          "internalType": "string",
          "name": "repo",
          "type": "string"
        },
        {
          "internalType": "uint256",
          "name": "issueNumber",
          "type": "uint256"
        }
      ],
      "name": "generateIssueId",
      "outputs": [
        {
          "internalType": "bytes32",
          "name": "",
          "type": "bytes32"
        }
      ],
      "stateMutability": "pure",
      "type": "function"
    },
    {
      "inputs": [
        {
          "internalType": "bytes32",
          "name": "issueId",
          "type": "bytes32"
        }
      ],
      "name": "getContributors",
      "outputs": [
        {
          "internalType": "address[]",
          "name": "",
          "type": "address[]"
        }
      ],
      "stateMutability": "view",
      "type": "function"
    },
    {
      "inputs": [
        {
          "internalType": "bytes32",
          "name": "issueId",
          "type": "bytes32"
        }
      ],
      "name": "getFundings",
      "outputs": [
        {
          "components": [
            {
              "internalType": "address",
              "name": "funder",
              "type": "address"
            },
            {
              "internalType": "uint256",
              "name": "amount",
              "type": "uint256"
            },
            {
              "internalType": "uint256",
              "name": "timestamp",
              "type": "uint256"
            }
          ],
          "internalType": "struct IssueTracker.Funding[]",
          "name": "",
          "type": "tuple[]"
        }
      ],
      "stateMutability": "view",
      "type": "function"
    },
    {
      "inputs": [
        {
          "internalType": "bytes32",
          "name": "issueId",
          "type": "bytes32"
        }
      ],
      "name": "getIssue",
      "outputs": [
        {
          "internalType": "string",
          "name": "owner",
          "type": "string"
        },
        {
          "internalType": "string",
          "name": "repo",
          "type": "string"
        },
        {
          "internalType": "uint256",
          "name": "issueNumber",
          "type": "uint256"
        },
        {
          "internalType": "uint256",
          "name": "totalFunding",
          "type": "uint256"
        },
        {
          "internalType": "bool",
          "name": "isClosed",
          "type": "bool"
        },
        {
          "internalType": "uint256",
          "name": "contributorCount",
          "type": "uint256"
        }
      ],
      "stateMutability": "view",
      "type": "function"
    },
    {
      "inputs": [],
      "name": "getIssueCount",
      "outputs": [
        {
          "internalType": "uint256",
          "name": "",
          "type": "uint256"
        }
      ],
      "stateMutability": "view",
      "type": "function"
    },
    {
      "inputs": [
        {
          "internalType": "bytes32",
          "name": "issueId",
          "type": "bytes32"
        }
      ],
      "name": "getRewardDetails",
      "outputs": [
        {
          "internalType": "uint256",
          "name": "totalFunding",
          "type": "uint256"
        },
        {
          "internalType": "uint256",
          "name": "contributorCount",
          "type": "uint256"
        },
        {
          "internalType": "uint256",
          "name": "rewardPerContributor",
          "type": "uint256"
        }
      ],
      "stateMutability": "view",
      "type": "function"
    },
    {
      "inputs": [
        {
          "internalType": "bytes32",
          "name": "issueId",
          "type": "bytes32"
        },
        {
          "internalType": "address",
          "name": "contributor",
          "type": "address"
        }
      ],
      "name": "isContributor",
      "outputs": [
        {
          "internalType": "bool",
          "name": "",
          "type": "bool"
        }
      ],
      "stateMutability": "view",
      "type": "function"
    },
    {
      "inputs": [
        {
          "internalType": "bytes32",
          "name": "",
          "type": "bytes32"
        },
        {
          "internalType": "uint256",
          "name": "",
          "type": "uint256"
        }
      ],
      "name": "issueFundings",
      "outputs": [
        {
          "internalType": "address",
          "name": "funder",
          "type": "address"
        },
        {
          "internalType": "uint256",
          "name": "amount",
          "type": "uint256"
        },
        {
          "internalType": "uint256",
          "name": "timestamp",
          "type": "uint256"
        }
      ],
      "stateMutability": "view",
      "type": "function"
    },
    {
      "inputs": [
        {
          "internalType": "bytes32",
          "name": "",
          "type": "bytes32"
        }
      ],
      "name": "issues",
      "outputs": [
        {
          "internalType": "string",
          "name": "owner",
          "type": "string"
        },
        {
          "internalType": "string",
          "name": "repo",
          "type": "string"
        },
        {
          "internalType": "uint256",
          "name": "issueNumber",
          "type": "uint256"
        },
        {
          "internalType": "uint256",
          "name": "totalFunding",
          "type": "uint256"
        },
        {
          "internalType": "bool",
          "name": "isClosed",
          "type": "bool"
        }
      ],
      "stateMutability": "view",
      "type": "function"
    },
    {
      "inputs": [
        {
          "internalType": "bytes32",
          "name": "issueId",
          "type": "bytes32"
        },
        {
          "internalType": "address",
          "name": "funder",
          "type": "address"
        },
        {
          "internalType": "uint256",
          "name": "amount",
          "type": "uint256"
        }
      ],
      "name": "recordFunding",
      "outputs": [],
      "stateMutability": "nonpayable",
      "type": "function"
    },
    {
      "inputs": [
        {
          "internalType": "string",
          "name": "owner",
          "type": "string"
        },
        {
          "internalType": "string",
          "name": "repo",
          "type": "string"
        },
        {
          "internalType": "uint256",
          "name": "issueNumber",
          "type": "uint256"
        }
      ],
      "name": "registerIssue",
      "outputs": [
        {
          "internalType": "bytes32",
          "name": "",
          "type": "bytes32"
        }
      ],
      "stateMutability": "nonpayable",
      "type": "function"
    },
    {
      "inputs": [],
      "name": "rewardToken",
      "outputs": [
        {
          "internalType": "contract IERC20",
          "name": "",
          "type": "address"
        }
      ],
      "stateMutability": "view",
      "type": "function"
    }
  ],
  "bytecode": "0x6080604052348015600e575f5ffd5b5060405161186d38038061186d833981016040819052602b9160a8565b6001600160a01b03811660845760405162461bcd60e51b815260206004820152601560248201527f496e76616c696420746f6b656e20616464726573730000000000000000000000604482015260640160405180910390fd5b600480546001600160a01b0319166001600160a01b039290921691909117905560d3565b5f6020828403121560b7575f5ffd5b81516001600160a01b038116811460cc575f5ffd5b9392505050565b61178d806100e05f395ff3fe608060405234801561000f575f5ffd5b5060043610610111575f3560e01c8063ad52652a1161009e578063e8097c801161006e578063e8097c80146102a6578063ef247870146102b9578063f4fcffa4146102cc578063f7c618c1146102f1578063f7de9ee21461031c575f5ffd5b8063ad52652a14610225578063ceb8daae14610249578063dc9d1a681461025c578063e0a04adb1461027c575f5ffd5b8063481e2fc8116100e4578063481e2fc81461019c578063599ca048146101bc578063861a9c99146101ea5780638c11a32e146101ff57806395c5dc7e14610212575f5ffd5b80630d4c470814610115578063250cfd711461012c57806331f4fff01461013f57806337508e0014610152575b5f5ffd5b6003545b6040519081526020015b60405180910390f35b61011961013a366004611162565b610354565b61011961014d36600461118c565b61045d565b61018c610160366004611162565b5f828152602081815260408083206001600160a01b038516845260060190915290205460ff1692915050565b6040519015158152602001610123565b6101af6101aa36600461118c565b61047c565b60405161012391906111a3565b6101cf6101ca36600461118c565b6104e6565b60408051938452602084019290925290820152606001610123565b6101fd6101f8366004611233565b61053a565b005b6101fd61020d3660046112ee565b610721565b61011961022036600461138d565b610a0e565b61023861023336600461118c565b610a43565b604051610123959493929190611429565b6101fd610257366004611162565b610b81565b61026f61026a36600461118c565b610cfe565b604051610123919061146d565b61011961028a366004611162565b600260209081525f928352604080842090915290825290205481565b6101196102b436600461138d565b610d8f565b6101fd6102c736600461118c565b610ecf565b6102df6102da36600461118c565b610f9b565b604051610123969594939291906114c6565b600454610304906001600160a01b031681565b6040516001600160a01b039091168152602001610123565b61032f61032a366004611510565b6110ff565b604080516001600160a01b039094168452602084019290925290820152606001610123565b5f828152602081815260408083206001600160a01b038516845260060190915281205460ff166103bf5760405162461bcd60e51b81526020600482015260116024820152702737ba10309031b7b73a3934b13aba37b960791b60448201526064015b60405180910390fd5b5f8381526020819052604090206004015460ff166104165760405162461bcd60e51b8152602060048201526014602482015273125cdcdd59481b9bdd0818db1bdcd959081e595d60621b60448201526064016103b6565b5f8381526020819052604090206003810154600590910154801580610439575081155b15610448575f92505050610457565b6104528183611530565b925050505b92915050565b6003818154811061046c575f80fd5b5f91825260209091200154905081565b5f81815260208181526040918290206005018054835181840281018401909452808452606093928301828280156104da57602002820191905f5260205f20905b81546001600160a01b031681526001909101906020018083116104bc575b50505050509050919050565b5f81815260208190526040812060058101548291829182811580159061050f57505f8360030154115b15610527578183600301546105249190611530565b90505b6003909201549450925090509193909250565b5f8281526020819052604081206002015490036105695760405162461bcd60e51b81526004016103b69061154f565b5f5b815181101561071c575f6001600160a01b031682828151811061059057610590611578565b60200260200101516001600160a01b0316141580156105f857505f5f8481526020019081526020015f206006015f8383815181106105d0576105d0611578565b6020908102919091018101516001600160a01b031682528101919091526040015f205460ff16155b15610714575f5f8481526020019081526020015f2060050182828151811061062257610622611578565b6020908102919091018101518254600180820185555f94855283852090910180546001600160a01b0319166001600160a01b039093169290921790915585835290829052604082208451919260069091019185908590811061068657610686611578565b60200260200101516001600160a01b03166001600160a01b031681526020019081526020015f205f6101000a81548160ff0219169083151502179055508181815181106106d5576106d5611578565b60200260200101516001600160a01b0316837f8ede5744ef9e05a2fea6aaf0fe924c6cbd8f93dd463229d1af4d0b86424e815360405160405180910390a35b60010161056b565b505050565b5f8381526020819052604081206002015490036107505760405162461bcd60e51b81526004016103b69061154f565b6001600160a01b03821661079f5760405162461bcd60e51b8152602060048201526016602482015275496e76616c69642066756e646572206164647265737360501b60448201526064016103b6565b5f81116107ee5760405162461bcd60e51b815260206004820152601d60248201527f416d6f756e74206d7573742062652067726561746572207468616e203000000060448201526064016103b6565b5f838152602081905260408120600301805483929061080e90849061158c565b90915550505f8381526002602090815260408083206001600160a01b038616845290915281205490036108ab575f83815260016020818152604080842081516060810183526001600160a01b038881168252818501888152429483019485528354808801855593885294909620905160039092020180546001600160a01b0319169190951617845590519183019190915551600290910155610993565b5f5b5f84815260016020526040902054811015610991575f84815260016020526040902080546001600160a01b0385169190839081106108ed576108ed611578565b5f9182526020909120600390910201546001600160a01b031603610989575f84815260016020526040902080548391908390811061092d5761092d611578565b905f5260205f2090600302016001015f82825461094a919061158c565b90915550505f84815260016020526040902080544291908390811061097157610971611578565b905f5260205f20906003020160020181905550610991565b6001016108ad565b505b5f8381526002602090815260408083206001600160a01b0386168452909152812080548392906109c490849061158c565b90915550506040518181526001600160a01b0383169084907fffdd9a7770795d590ebaf9a0a2dab7ecaee7089333a20dd2127b97fe712016019060200160405180910390a3505050565b5f838383604051602001610a24939291906115c2565b6040516020818303038152906040528051906020012090509392505050565b5f60208190529081526040902080548190610a5d906115e4565b80601f0160208091040260200160405190810160405280929190818152602001828054610a89906115e4565b8015610ad45780601f10610aab57610100808354040283529160200191610ad4565b820191905f5260205f20905b815481529060010190602001808311610ab757829003601f168201915b505050505090806001018054610ae9906115e4565b80601f0160208091040260200160405190810160405280929190818152602001828054610b15906115e4565b8015610b605780601f10610b3757610100808354040283529160200191610b60565b820191905f5260205f20905b815481529060010190602001808311610b4357829003601f168201915b50505050600283015460038401546004909401549293909290915060ff1685565b5f828152602081905260408120600201549003610bb05760405162461bcd60e51b81526004016103b69061154f565b6001600160a01b038116610c065760405162461bcd60e51b815260206004820152601b60248201527f496e76616c696420636f6e7472696275746f722061646472657373000000000060448201526064016103b6565b5f828152602081815260408083206001600160a01b038516845260060190915290205460ff1615610c795760405162461bcd60e51b815260206004820152601960248201527f436f6e7472696275746f7220616c72656164792061646465640000000000000060448201526064016103b6565b5f82815260208181526040808320600581018054600180820183559186528486200180546001600160a01b0319166001600160a01b0388169081179091558086526006909201909352818420805460ff191690931790925551909184917f8ede5744ef9e05a2fea6aaf0fe924c6cbd8f93dd463229d1af4d0b86424e81539190a35050565b606060015f8381526020019081526020015f20805480602002602001604051908101604052809291908181526020015f905b82821015610d84575f848152602090819020604080516060810182526003860290920180546001600160a01b0316835260018082015484860152600290910154918301919091529083529092019101610d30565b505050509050919050565b5f5f610d9c858585610a0e565b5f8181526020819052604090206002015490915015610dfd5760405162461bcd60e51b815260206004820152601860248201527f497373756520616c72656164792072656769737465726564000000000000000060448201526064016103b6565b5f818152602081905260409020610e148682611667565b505f818152602081905260409020600101610e2f8582611667565b505f818152602081905260408082206002810186905560038082018490556004909101805460ff19169055805460018101825592527fc2575a0e9e593c00f959f8c92f12db2869c3395a3b0502d05e2516446f71f85b9091018290555181907fa5f8d35aabc35374e5f28a39a48669254b029c3244e02ea9278d0e102c82c90190610ebf90889088908890611722565b60405180910390a2949350505050565b5f818152602081905260408120600201549003610efe5760405162461bcd60e51b81526004016103b69061154f565b5f8181526020819052604090206004015460ff1615610f565760405162461bcd60e51b8152602060048201526014602482015273125cdcdd5948185b1c9958591e4818db1bdcd95960621b60448201526064016103b6565b5f81815260208190526040808220600401805460ff191660011790555182917f7489eb126cc5f04bff1ca65904160e48f5662d9d32d758add511dffcbacf4fb791a250565b5f8181526020819052604081206002808201546003830154600484015484546060968796909586958695869593948594600186019460ff909116918690610fe1906115e4565b80601f016020809104026020016040519081016040528092919081815260200182805461100d906115e4565b80156110585780601f1061102f57610100808354040283529160200191611058565b820191905f5260205f20905b81548152906001019060200180831161103b57829003601f168201915b5050505050955084805461106b906115e4565b80601f0160208091040260200160405190810160405280929190818152602001828054611097906115e4565b80156110e25780601f106110b9576101008083540402835291602001916110e2565b820191905f5260205f20905b8154815290600101906020018083116110c557829003601f168201915b505050505094509650965096509650965096505091939550919395565b6001602052815f5260405f208181548110611118575f80fd5b5f9182526020909120600390910201805460018201546002909201546001600160a01b03909116935090915083565b80356001600160a01b038116811461115d575f5ffd5b919050565b5f5f60408385031215611173575f5ffd5b8235915061118360208401611147565b90509250929050565b5f6020828403121561119c575f5ffd5b5035919050565b602080825282518282018190525f918401906040840190835b818110156111e35783516001600160a01b03168352602093840193909201916001016111bc565b509095945050505050565b634e487b7160e01b5f52604160045260245ffd5b604051601f8201601f1916810167ffffffffffffffff8111828210171561122b5761122b6111ee565b604052919050565b5f5f60408385031215611244575f5ffd5b82359150602083013567ffffffffffffffff811115611261575f5ffd5b8301601f81018513611271575f5ffd5b803567ffffffffffffffff81111561128b5761128b6111ee565b8060051b61129b60208201611202565b918252602081840181019290810190888411156112b6575f5ffd5b6020850194505b838510156112df576112ce85611147565b8252602094850194909101906112bd565b80955050505050509250929050565b5f5f5f60608486031215611300575f5ffd5b8335925061131060208501611147565b929592945050506040919091013590565b5f82601f830112611330575f5ffd5b813567ffffffffffffffff81111561134a5761134a6111ee565b61135d601f8201601f1916602001611202565b818152846020838601011115611371575f5ffd5b816020850160208301375f918101602001919091529392505050565b5f5f5f6060848603121561139f575f5ffd5b833567ffffffffffffffff8111156113b5575f5ffd5b6113c186828701611321565b935050602084013567ffffffffffffffff8111156113dd575f5ffd5b6113e986828701611321565b93969395505050506040919091013590565b5f81518084528060208401602086015e5f602082860101526020601f19601f83011685010191505092915050565b60a081525f61143b60a08301886113fb565b828103602084015261144d81886113fb565b604084019690965250506060810192909252151560809091015292915050565b602080825282518282018190525f918401906040840190835b818110156111e357835180516001600160a01b03168452602080820151818601526040918201519185019190915290930192606090920191600101611486565b60c081525f6114d860c08301896113fb565b82810360208401526114ea81896113fb565b604084019790975250506060810193909352901515608083015260a09091015292915050565b5f5f60408385031215611521575f5ffd5b50508035926020909101359150565b5f8261154a57634e487b7160e01b5f52601260045260245ffd5b500490565b6020808252600f908201526e125cdcdd59481b9bdd08199bdd5b99608a1b604082015260600190565b634e487b7160e01b5f52603260045260245ffd5b8082018082111561045757634e487b7160e01b5f52601160045260245ffd5b5f81518060208401855e5f93019283525090919050565b5f6115d66115d083876115ab565b856115ab565b928352505060200192915050565b600181811c908216806115f857607f821691505b60208210810361161657634e487b7160e01b5f52602260045260245ffd5b50919050565b601f82111561071c57805f5260205f20601f840160051c810160208510156116415750805b601f840160051c820191505b81811015611660575f815560010161164d565b5050505050565b815167ffffffffffffffff811115611681576116816111ee565b6116958161168f84546115e4565b8461161c565b6020601f8211600181146116c7575f83156116b05750848201515b5f19600385901b1c1916600184901b178455611660565b5f84815260208120601f198516915b828110156116f657878501518255602094850194600190920191016116d6565b508482101561171357868401515f19600387901b60f8161c191681555b50505050600190811b01905550565b606081525f61173460608301866113fb565b828103602084015261174681866113fb565b91505082604083015294935050505056fea264697066735822122012314d61f5edfdbd638c1075e4513da75704026acd838db2ba4de4e14648f34d64736f6c634300081c0033",
  "linkReferences": {},
  "deployedLinkReferences": {},
  "immutableReferences": {},
  "inputSourceName": "project/contracts/issue-tracker.sol",
  "buildInfoId": "solc-0_8_28-42a438dc1f4502c42a43f2ccc2e47df963340d91"
}