{
  "_format": "hh3-artifact-1",
  "contractName": "RewardDistributor",
  "sourceName": "contracts/reward-distributor.sol",
  "abi": [
    {
      "inputs": [
        {
          "internalType": "address",
          "name": "_issueTracker",
          "type": "address"
        },
        {
          "internalType": "address",
          "name": "_rewardToken",
          "type": "address"
        }
      ],
      "stateMutability": "nonpayable",
      "type": "constructor"
    },
    {
      "inputs": [
        {
          "internalType": "address",
          "name": "token",
          "type": "address"
        }
      ],
      "name": "SafeERC20FailedOperation",
      "type": "error"
    },
    {
      "anonymous": false,
      "inputs": [
        {
          "indexed": true,
          "internalType": "bytes32",
          "name": "issueId",
          "type": "bytes32"
        },
        {
          "indexed": true,
          "internalType": "address",
          "name": "funder",
          "type": "address"
        },
        {
          "indexed": false,
          "internalType": "uint256",
          "name": "amount",
          "type": "uint256"
        }
      ],
      "name": "FundsDeposited",
      "type": "event"
    },
    {
      "anonymous": false,
      "inputs": [
        {
          "indexed": true,
          "internalType": "bytes32",
          "name": "issueId",
          "type": "bytes32"
        },
        {
          "indexed": true,
          "internalType": "address",
          "name": "funder",
          "type": "address"
        },
        {
          "indexed": false,
          "internalType": "uint256",
          "name": "amount",
          "type": "uint256"
        }
      ],
      "name": "FundsWithdrawn",
      "type": "event"
    },
    {
      "anonymous": false,
      "inputs": [
        {
          "indexed": true,
          "internalType": "bytes32",
          "name": "issueId",
          "type": "bytes32"
        },
        {
          "indexed": true,
          "internalType": "address",
          "name": "contributor",
          "type": "address"
        },
        {
          "indexed": false,
          "internalType": "uint256",
          "name": "amount",
          "type": "uint256"
        }
      ],
      "name": "RewardDistributed",
      "type": "event"
    },
    {
      "inputs": [
        {
          "internalType": "bytes32",
          "name": "issueId",
          "type": "bytes32"
        }
      ],
      "name": "areAllRewardsDistributed",
      "outputs": [
        {
          "internalType": "bool",
          "name": "",
          "type": "bool"
        }
      ],
      "stateMutability": "view",
      "type": "function"
    },
    {
      "inputs": [
        {
          "internalType": "string",
          "name": "owner",
          "type": "string"
        },
        {
          "internalType": "string",
          "name": "repo",
          "type": "string"
        },
        {
          "internalType": "uint256",
          "name": "issueNumber",
          "type": "uint256"
        },
        {
          "internalType": "address",
          "name": "wallet",
          "type": "address"
        },
        {
          "internalType": "string",
          "name": "githubUsername",
          "type": "string"
        }
      ],
      "name": "claimReward",
      "outputs": [],
      "stateMutability": "nonpayable",
      "type": "function"
    },
    {
      "inputs": [
        {
          "internalType": "bytes32",
          "name": "issueId",
          "type": "bytes32"
        },
        {
          "internalType": "uint256",
          "name": "amount",
          "type": "uint256"
        }
      ],
      "name": "depositFunds",
      "outputs": [],
      "stateMutability": "nonpayable",
      "type": "function"
    },
    {
      "inputs": [
        {
          "internalType": "bytes32",
          "name": "issueId",
          "type": "bytes32"
        }
      ],
      "name": "distributeAllRewards",
      "outputs": [],
      "stateMutability": "nonpayable",
      "type": "function"
    },
    {
      "inputs": [
        {
          "internalType": "bytes32",
          "name": "issueId",
          "type": "bytes32"
        },
        {
          "internalType": "address",
          "name": "contributor",
          "type": "address"
        }
      ],
      "name": "distributeReward",
      "outputs": [],
      "stateMutability": "nonpayable",
      "type": "function"
    },
    {
      "inputs": [
        {
          "internalType": "bytes32",
          "name": "",
          "type": "bytes32"
        },
        {
          "internalType": "address",
          "name": "",
          "type": "address"
        }
      ],
      "name": "distributedRewards",
      "outputs": [
        {
          "internalType": "uint256",
          "name": "",
          "type": "uint256"
        }
      ],
      "stateMutability": "view",
      "type": "function"
    },
    {
      "inputs": [
        {
          "internalType": "string",
          "name": "owner",
          "type": "string"
        },
        {
          "internalType": "string",
          "name": "repo",
          "type": "string"
        },
        {
          "internalType": "uint256",
          "name": "issueNumber",
          "type": "uint256"
        },
        {
          "internalType": "uint256",
          "name": "amount",
          "type": "uint256"
        }
      ],
      "name": "fundIssue",
      "outputs": [
        {
          "internalType": "bytes32",
          "name": "",
          "type": "bytes32"
        }
      ],
      "stateMutability": "nonpayable",
      "type": "function"
    },
    {
      "inputs": [
        {
          "internalType": "bytes32",
          "name": "issueId",
          "type": "bytes32"
        }
      ],
      "name": "getIssueBalance",
      "outputs": [
        {
          "internalType": "uint256",
          "name": "",
          "type": "uint256"
        }
      ],
      "stateMutability": "view",
      "type": "function"
    },
    {
      "inputs": [
        {
          "internalType": "bytes32",
          "name": "issueId",
          "type": "bytes32"
        },
        {
          "internalType": "address",
          "name": "contributor",
          "type": "address"
        }
      ],
      "name": "getPendingReward",
      "outputs": [
        {
          "internalType": "uint256",
          "name": "",
          "type": "uint256"
        }
      ],
      "stateMutability": "view",
      "type": "function"
    },
    {
      "inputs": [
        {
          "internalType": "bytes32",
          "name": "issueId",
          "type": "bytes32"
        }
      ],
      "name": "getTotalPendingRewards",
      "outputs": [
        {
          "internalType": "uint256",
          "name": "",
          "type": "uint256"
        }
      ],
      "stateMutability": "view",
      "type": "function"
    },
    {
      "inputs": [
        {
          "internalType": "bytes32",
          "name": "",
          "type": "bytes32"
        }
      ],
      "name": "issueFunds",
      "outputs": [
        {
          "internalType": "uint256",
          "name": "",
          "type": "uint256"
        }
      ],
      "stateMutability": "view",
      "type": "function"
    },
    {
      "inputs": [],
      "name": "issueTracker",
      "outputs": [
        {
          "internalType": "contract IssueTracker",
          "name": "",
          "type": "address"
        }
      ],
      "stateMutability": "view",
      "type": "function"
    },
    {
      "inputs": [],
      "name": "rewardToken",
      "outputs": [
        {
          "internalType": "contract IERC20",
          "name": "",
          "type": "address"
        }
      ],
      "stateMutability": "view",
      "type": "function"
    }
  ],
  "bytecode": "0x608060405234801561000f575f5ffd5b5060405161183438038061183483398101604081905261002e9161012a565b6001600160a01b0382166100895760405162461bcd60e51b815260206004820152601d60248201527f496e76616c696420697373756520747261636b6572206164647265737300000060448201526064015b60405180910390fd5b6001600160a01b0381166100df5760405162461bcd60e51b815260206004820152601560248201527f496e76616c696420746f6b656e206164647265737300000000000000000000006044820152606401610080565b5f80546001600160a01b039384166001600160a01b0319918216179091556001805492909316911617905561015b565b80516001600160a01b0381168114610125575f5ffd5b919050565b5f5f6040838503121561013b575f5ffd5b6101448361010f565b91506101526020840161010f565b90509250929050565b6116cc806101685f395ff3fe608060405234801561000f575f5ffd5b50600436106100cb575f3560e01c8063856bd58d11610088578063a939e53c11610063578063a939e53c146101b2578063ac48bffb146101d5578063bddcd754146101ff578063f7c618c11461021e575f5ffd5b8063856bd58d146101795780638c45e6b01461018c5780639f1f90441461019f575f5ffd5b80630692be99146100cf5780631477bd901461010157806323f86d5a146101165780634471836714610140578063565871c01461015357806369608a3114610166575b5f5ffd5b6100ee6100dd36600461118c565b60026020525f908152604090205481565b6040519081526020015b60405180910390f35b61011461010f3660046111a3565b610231565b005b5f54610128906001600160a01b031681565b6040516001600160a01b0390911681526020016100f8565b61011461014e36600461118c565b6102fa565b6100ee61016136600461118c565b6103f6565b6100ee6101743660046111da565b6104b0565b6100ee6101873660046112c6565b610659565b61011461019a3660046111da565b610825565b6101146101ad36600461133a565b610be4565b6101c56101c036600461118c565b610f8a565b60405190151581526020016100f8565b6100ee6101e33660046111da565b600360209081525f928352604080842090915290825290205481565b6100ee61020d36600461118c565b5f9081526002602052604090205490565b600154610128906001600160a01b031681565b5f81116102855760405162461bcd60e51b815260206004820152601d60248201527f416d6f756e74206d7573742062652067726561746572207468616e203000000060448201526064015b60405180910390fd5b60015461029d906001600160a01b0316333084611082565b5f82815260026020526040812080548392906102ba9084906113f8565b9091555050604051818152339083907f6221f2b1a766e0a60a83a05c2ca8be3bf4b8028dbcb5b67624f5392a07372ae39060200160405180910390a35050565b5f8054604051630903c5f960e31b8152600481018490526001600160a01b039091169063481e2fc8906024015f60405180830381865afa158015610340573d5f5f3e3d5ffd5b505050506040513d5f823e601f3d908101601f19168201604052610367919081019061140b565b90505f5b81518110156103f15760035f8481526020019081526020015f205f838381518110610398576103986114bf565b60200260200101516001600160a01b03166001600160a01b031681526020019081526020015f20545f036103e9576103e9838383815181106103dc576103dc6114bf565b6020026020010151610825565b60010161036b565b505050565b5f8054604051630903c5f960e31b81526004810184905282916001600160a01b03169063481e2fc8906024015f60405180830381865afa15801561043c573d5f5f3e3d5ffd5b505050506040513d5f823e601f3d908101601f19168201604052610463919081019061140b565b90505f805b82518110156104a85761049485848381518110610487576104876114bf565b60200260200101516104b0565b61049e90836113f8565b9150600101610468565b509392505050565b5f8054604051621ba84760e91b8152600481018590526001600160a01b038481166024830152909116906337508e0090604401602060405180830381865afa1580156104fe573d5f5f3e3d5ffd5b505050506040513d601f19601f8201168201806040525081019061052291906114e7565b61052d57505f610653565b5f8381526003602090815260408083206001600160a01b03861684529091529020541561055b57505f610653565b5f8054604051633d3f3fe960e21b8152600481018690526001600160a01b039091169063f4fcffa4906024015f60405180830381865afa1580156105a1573d5f5f3e3d5ffd5b505050506040513d5f823e601f3d908101601f191682016040526105c89190810190611554565b50945050505050806105dd575f915050610653565b5f5460405163250cfd7160e01b8152600481018690526001600160a01b0385811660248301529091169063250cfd7190604401602060405180830381865afa15801561062b573d5f5f3e3d5ffd5b505050506040513d601f19601f8201168201806040525081019061064f91906115ea565b9150505b92915050565b5f5f82116106a95760405162461bcd60e51b815260206004820152601d60248201527f416d6f756e74206d7573742062652067726561746572207468616e2030000000604482015260640161027c565b5f8054604051634ae2ee3f60e11b81526001600160a01b03909116906395c5dc7e906106dd9089908990899060040161162f565b602060405180830381865afa1580156106f8573d5f5f3e3d5ffd5b505050506040513d601f19601f8201168201806040525081019061071c91906115ea565b5f8054604051633d3f3fe960e21b81526004810184905292935090916001600160a01b039091169063f4fcffa4906024015f60405180830381865afa158015610767573d5f5f3e3d5ffd5b505050506040513d5f823e601f3d908101601f1916820160405261078e9190810190611554565b50505092505050805f03610811575f546040516301d012f960e71b81526001600160a01b039091169063e8097c80906107cf908a908a908a9060040161162f565b6020604051808303815f875af11580156107eb573d5f5f3e3d5ffd5b505050506040513d601f19601f8201168201806040525081019061080f91906115ea565b505b61081b8285610231565b5095945050505050565b5f54604051621ba84760e91b8152600481018490526001600160a01b038381166024830152909116906337508e0090604401602060405180830381865afa158015610872573d5f5f3e3d5ffd5b505050506040513d601f19601f8201168201806040525081019061089691906114e7565b6108d65760405162461bcd60e51b81526020600482015260116024820152702737ba10309031b7b73a3934b13aba37b960791b604482015260640161027c565b5f8054604051633d3f3fe960e21b8152600481018590526001600160a01b039091169063f4fcffa4906024015f60405180830381865afa15801561091c573d5f5f3e3d5ffd5b505050506040513d5f823e601f3d908101601f191682016040526109439190810190611554565b50945050505050806109b05760405162461bcd60e51b815260206004820152603060248201527f4973737565206d75737420626520636c6f736564206265666f7265206469737460448201526f7269627574696e67207265776172647360801b606482015260840161027c565b5f805460405163250cfd7160e01b8152600481018690526001600160a01b0385811660248301529091169063250cfd7190604401602060405180830381865afa1580156109ff573d5f5f3e3d5ffd5b505050506040513d601f19601f82011682018060405250810190610a2391906115ea565b90505f8111610a745760405162461bcd60e51b815260206004820152601760248201527f4e6f2072657761726420746f2064697374726962757465000000000000000000604482015260640161027c565b5f8481526003602090815260408083206001600160a01b038716845290915290205415610ae35760405162461bcd60e51b815260206004820152601a60248201527f52657761726420616c7265616479206469737472696275746564000000000000604482015260640161027c565b5f84815260026020526040902054811115610b405760405162461bcd60e51b815260206004820152601e60248201527f496e73756666696369656e742066756e647320696e20636f6e74726163740000604482015260640161027c565b5f8481526003602090815260408083206001600160a01b03871684528252808320849055868352600290915281208054839290610b7e908490611664565b9091555050600154610b9a906001600160a01b031684836110ef565b826001600160a01b0316847f8fa6abe1348f6561b9a60363efc5793e820b343dce49d00e37d01644d9268a7783604051610bd691815260200190565b60405180910390a350505050565b6001600160a01b038216610c335760405162461bcd60e51b8152602060048201526016602482015275496e76616c69642077616c6c6574206164647265737360501b604482015260640161027c565b5f815111610c835760405162461bcd60e51b815260206004820152601760248201527f496e76616c69642047697448756220757365726e616d65000000000000000000604482015260640161027c565b5f855111610cc35760405162461bcd60e51b815260206004820152600d60248201526c24b73b30b634b21037bbb732b960991b604482015260640161027c565b5f845111610d025760405162461bcd60e51b815260206004820152600c60248201526b496e76616c6964207265706f60a01b604482015260640161027c565b5f8311610d485760405162461bcd60e51b815260206004820152601460248201527324b73b30b634b21034b9b9bab290373ab6b132b960611b604482015260640161027c565b5f8054604051634ae2ee3f60e11b81526001600160a01b03909116906395c5dc7e90610d7c9089908990899060040161162f565b602060405180830381865afa158015610d97573d5f5f3e3d5ffd5b505050506040513d601f19601f82011682018060405250810190610dbb91906115ea565b5f8054604051633d3f3fe960e21b815260048101849052929350909182916001600160a01b03169063f4fcffa4906024015f60405180830381865afa158015610e06573d5f5f3e3d5ffd5b505050506040513d5f823e601f3d908101601f19168201604052610e2d9190810190611554565b95505094505050505f8111610e845760405162461bcd60e51b815260206004820152601e60248201527f4e6f20636f6e7472696275746f727320666f7220746869732069737375650000604482015260640161027c565b5f8211610ed35760405162461bcd60e51b815260206004820152601960248201527f4e6f2066756e64696e6720666f72207468697320697373756500000000000000604482015260640161027c565b5f610ede8284611677565b90505f8111610f245760405162461bcd60e51b81526020600482015260126024820152714e6f2072657761726420746f20636c61696d60701b604482015260640161027c565b600154610f3b906001600160a01b031687836110ef565b856001600160a01b0316847f8fa6abe1348f6561b9a60363efc5793e820b343dce49d00e37d01644d9268a7783604051610f7791815260200190565b60405180910390a3505050505050505050565b5f8054604051630903c5f960e31b81526004810184905282916001600160a01b03169063481e2fc8906024015f60405180830381865afa158015610fd0573d5f5f3e3d5ffd5b505050506040513d5f823e601f3d908101601f19168201604052610ff7919081019061140b565b905080515f0361100a5750600192915050565b5f5b81518110156110785760035f8581526020019081526020015f205f838381518110611039576110396114bf565b60200260200101516001600160a01b03166001600160a01b031681526020019081526020015f20545f0361107057505f9392505050565b60010161100c565b5060019392505050565b6040516001600160a01b0384811660248301528381166044830152606482018390526110e99186918216906323b872dd906084015b604051602081830303815290604052915060e01b6020820180516001600160e01b038381831617835250505050611120565b50505050565b6040516001600160a01b038381166024830152604482018390526103f191859182169063a9059cbb906064016110b7565b5f5f60205f8451602086015f885af18061113f576040513d5f823e3d81fd5b50505f513d91508115611156578060011415611163565b6001600160a01b0384163b155b156110e957604051635274afe760e01b81526001600160a01b038516600482015260240161027c565b5f6020828403121561119c575f5ffd5b5035919050565b5f5f604083850312156111b4575f5ffd5b50508035926020909101359150565b6001600160a01b03811681146111d7575f5ffd5b50565b5f5f604083850312156111eb575f5ffd5b8235915060208301356111fd816111c3565b809150509250929050565b634e487b7160e01b5f52604160045260245ffd5b604051601f8201601f1916810167ffffffffffffffff8111828210171561124557611245611208565b604052919050565b5f67ffffffffffffffff82111561126657611266611208565b50601f01601f191660200190565b5f82601f830112611283575f5ffd5b81356112966112918261124d565b61121c565b8181528460208386010111156112aa575f5ffd5b816020850160208301375f918101602001919091529392505050565b5f5f5f5f608085870312156112d9575f5ffd5b843567ffffffffffffffff8111156112ef575f5ffd5b6112fb87828801611274565b945050602085013567ffffffffffffffff811115611317575f5ffd5b61132387828801611274565b949794965050505060408301359260600135919050565b5f5f5f5f5f60a0868803121561134e575f5ffd5b853567ffffffffffffffff811115611364575f5ffd5b61137088828901611274565b955050602086013567ffffffffffffffff81111561138c575f5ffd5b61139888828901611274565b9450506040860135925060608601356113b0816111c3565b9150608086013567ffffffffffffffff8111156113cb575f5ffd5b6113d788828901611274565b9150509295509295909350565b634e487b7160e01b5f52601160045260245ffd5b80820180821115610653576106536113e4565b5f6020828403121561141b575f5ffd5b815167ffffffffffffffff811115611431575f5ffd5b8201601f81018413611441575f5ffd5b805167ffffffffffffffff81111561145b5761145b611208565b8060051b61146b6020820161121c565b91825260208184018101929081019087841115611486575f5ffd5b6020850194505b838510156114b457845192506114a2836111c3565b8282526020948501949091019061148d565b979650505050505050565b634e487b7160e01b5f52603260045260245ffd5b805180151581146114e2575f5ffd5b919050565b5f602082840312156114f7575f5ffd5b611500826114d3565b9392505050565b5f82601f830112611516575f5ffd5b81516115246112918261124d565b818152846020838601011115611538575f5ffd5b8160208501602083015e5f918101602001919091529392505050565b5f5f5f5f5f5f60c08789031215611569575f5ffd5b865167ffffffffffffffff81111561157f575f5ffd5b61158b89828a01611507565b965050602087015167ffffffffffffffff8111156115a7575f5ffd5b6115b389828a01611507565b604089015160608a0151919750955093506115d29050608088016114d3565b91505f60a08801519050809150509295509295509295565b5f602082840312156115fa575f5ffd5b5051919050565b5f81518084528060208401602086015e5f602082860101526020601f19601f83011685010191505092915050565b606081525f6116416060830186611601565b82810360208401526116538186611601565b915050826040830152949350505050565b81810381811115610653576106536113e4565b5f8261169157634e487b7160e01b5f52601260045260245ffd5b50049056fea2646970667358221220f10e12a01c1c7872e7a17207ff979af06827e5aeb38a5a381ad7596964ae765964736f6c634300081c0033",
  "linkReferences": {},
  "deployedLinkReferences": {},
  "immutableReferences": {},
  "inputSourceName": "project/contracts/reward-distributor.sol",
  "buildInfoId": "solc-0_8_28-349669f17f441a0216d9e97948d5d2c70701920a"
}