{
  "_format": "hh3-artifact-1",
  "contractName": "IssueTracker",
  "sourceName": "contracts/issue-tracker.sol",
  "abi": [
    {
      "inputs": [
        {
          "internalType": "address",
          "name": "_rewardToken",
          "type": "address"
        }
      ],
      "stateMutability": "nonpayable",
      "type": "constructor"
    },
    {
      "anonymous": false,
      "inputs": [
        {
          "indexed": true,
          "internalType": "bytes32",
          "name": "issueId",
          "type": "bytes32"
        },
        {
          "indexed": true,
          "internalType": "address",
          "name": "contributor",
          "type": "address"
        }
      ],
      "name": "ContributorAdded",
      "type": "event"
    },
    {
      "anonymous": false,
      "inputs": [
        {
          "indexed": true,
          "internalType": "bytes32",
          "name": "issueId",
          "type": "bytes32"
        }
      ],
      "name": "IssueClosed",
      "type": "event"
    },
    {
      "anonymous": false,
      "inputs": [
        {
          "indexed": true,
          "internalType": "bytes32",
          "name": "issueId",
          "type": "bytes32"
        },
        {
          "indexed": true,
          "internalType": "address",
          "name": "funder",
          "type": "address"
        },
        {
          "indexed": false,
          "internalType": "uint256",
          "name": "amount",
          "type": "uint256"
        }
      ],
      "name": "IssueFunded",
      "type": "event"
    },
    {
      "anonymous": false,
      "inputs": [
        {
          "indexed": true,
          "internalType": "bytes32",
          "name": "issueId",
          "type": "bytes32"
        },
        {
          "indexed": false,
          "internalType": "string",
          "name": "owner",
          "type": "string"
        },
        {
          "indexed": false,
          "internalType": "string",
          "name": "repo",
          "type": "string"
        },
        {
          "indexed": false,
          "internalType": "uint256",
          "name": "issueNumber",
          "type": "uint256"
        }
      ],
      "name": "IssueRegistered",
      "type": "event"
    },
    {
      "inputs": [
        {
          "internalType": "bytes32",
          "name": "issueId",
          "type": "bytes32"
        },
        {
          "internalType": "address",
          "name": "contributor",
          "type": "address"
        }
      ],
      "name": "addContributor",
      "outputs": [],
      "stateMutability": "nonpayable",
      "type": "function"
    },
    {
      "inputs": [
        {
          "internalType": "bytes32",
          "name": "issueId",
          "type": "bytes32"
        },
        {
          "internalType": "address[]",
          "name": "contributors",
          "type": "address[]"
        }
      ],
      "name": "addContributors",
      "outputs": [],
      "stateMutability": "nonpayable",
      "type": "function"
    },
    {
      "inputs": [
        {
          "internalType": "uint256",
          "name": "",
          "type": "uint256"
        }
      ],
      "name": "allIssueIds",
      "outputs": [
        {
          "internalType": "bytes32",
          "name": "",
          "type": "bytes32"
        }
      ],
      "stateMutability": "view",
      "type": "function"
    },
    {
      "inputs": [
        {
          "internalType": "bytes32",
          "name": "issueId",
          "type": "bytes32"
        },
        {
          "internalType": "address",
          "name": "contributor",
          "type": "address"
        }
      ],
      "name": "calculateReward",
      "outputs": [
        {
          "internalType": "uint256",
          "name": "",
          "type": "uint256"
        }
      ],
      "stateMutability": "view",
      "type": "function"
    },
    {
      "inputs": [
        {
          "internalType": "bytes32",
          "name": "issueId",
          "type": "bytes32"
        }
      ],
      "name": "closeIssue",
      "outputs": [],
      "stateMutability": "nonpayable",
      "type": "function"
    },
    {
      "inputs": [
        {
          "internalType": "bytes32",
          "name": "",
          "type": "bytes32"
        },
        {
          "internalType": "address",
          "name": "",
          "type": "address"
        }
      ],
      "name": "funderAmounts",
      "outputs": [
        {
          "internalType": "uint256",
          "name": "",
          "type": "uint256"
        }
      ],
      "stateMutability": "view",
      "type": "function"
    },
    {
      "inputs": [
        {
          "internalType": "string",
          "name": "owner",
          "type": "string"
        },
        {
          "internalType": "string",
          "name": "repo",
          "type": "string"
        },
        {
          "internalType": "uint256",
          "name": "issueNumber",
          "type": "uint256"
        }
      ],
      "name": "generateIssueId",
      "outputs": [
        {
          "internalType": "bytes32",
          "name": "",
          "type": "bytes32"
        }
      ],
      "stateMutability": "pure",
      "type": "function"
    },
    {
      "inputs": [
        {
          "internalType": "bytes32",
          "name": "issueId",
          "type": "bytes32"
        }
      ],
      "name": "getContributors",
      "outputs": [
        {
          "internalType": "address[]",
          "name": "",
          "type": "address[]"
        }
      ],
      "stateMutability": "view",
      "type": "function"
    },
    {
      "inputs": [
        {
          "internalType": "bytes32",
          "name": "issueId",
          "type": "bytes32"
        }
      ],
      "name": "getFundings",
      "outputs": [
        {
          "components": [
            {
              "internalType": "address",
              "name": "funder",
              "type": "address"
            },
            {
              "internalType": "uint256",
              "name": "amount",
              "type": "uint256"
            },
            {
              "internalType": "uint256",
              "name": "timestamp",
              "type": "uint256"
            }
          ],
          "internalType": "struct IssueTracker.Funding[]",
          "name": "",
          "type": "tuple[]"
        }
      ],
      "stateMutability": "view",
      "type": "function"
    },
    {
      "inputs": [
        {
          "internalType": "bytes32",
          "name": "issueId",
          "type": "bytes32"
        }
      ],
      "name": "getIssue",
      "outputs": [
        {
          "internalType": "string",
          "name": "owner",
          "type": "string"
        },
        {
          "internalType": "string",
          "name": "repo",
          "type": "string"
        },
        {
          "internalType": "uint256",
          "name": "issueNumber",
          "type": "uint256"
        },
        {
          "internalType": "uint256",
          "name": "totalFunding",
          "type": "uint256"
        },
        {
          "internalType": "bool",
          "name": "isClosed",
          "type": "bool"
        },
        {
          "internalType": "uint256",
          "name": "contributorCount",
          "type": "uint256"
        }
      ],
      "stateMutability": "view",
      "type": "function"
    },
    {
      "inputs": [],
      "name": "getIssueCount",
      "outputs": [
        {
          "internalType": "uint256",
          "name": "",
          "type": "uint256"
        }
      ],
      "stateMutability": "view",
      "type": "function"
    },
    {
      "inputs": [
        {
          "internalType": "bytes32",
          "name": "issueId",
          "type": "bytes32"
        }
      ],
      "name": "getRewardDetails",
      "outputs": [
        {
          "internalType": "uint256",
          "name": "totalFunding",
          "type": "uint256"
        },
        {
          "internalType": "uint256",
          "name": "contributorCount",
          "type": "uint256"
        },
        {
          "internalType": "uint256",
          "name": "rewardPerContributor",
          "type": "uint256"
        }
      ],
      "stateMutability": "view",
      "type": "function"
    },
    {
      "inputs": [
        {
          "internalType": "bytes32",
          "name": "issueId",
          "type": "bytes32"
        },
        {
          "internalType": "address",
          "name": "contributor",
          "type": "address"
        }
      ],
      "name": "isContributor",
      "outputs": [
        {
          "internalType": "bool",
          "name": "",
          "type": "bool"
        }
      ],
      "stateMutability": "view",
      "type": "function"
    },
    {
      "inputs": [
        {
          "internalType": "bytes32",
          "name": "",
          "type": "bytes32"
        },
        {
          "internalType": "uint256",
          "name": "",
          "type": "uint256"
        }
      ],
      "name": "issueFundings",
      "outputs": [
        {
          "internalType": "address",
          "name": "funder",
          "type": "address"
        },
        {
          "internalType": "uint256",
          "name": "amount",
          "type": "uint256"
        },
        {
          "internalType": "uint256",
          "name": "timestamp",
          "type": "uint256"
        }
      ],
      "stateMutability": "view",
      "type": "function"
    },
    {
      "inputs": [
        {
          "internalType": "bytes32",
          "name": "",
          "type": "bytes32"
        }
      ],
      "name": "issues",
      "outputs": [
        {
          "internalType": "string",
          "name": "owner",
          "type": "string"
        },
        {
          "internalType": "string",
          "name": "repo",
          "type": "string"
        },
        {
          "internalType": "uint256",
          "name": "issueNumber",
          "type": "uint256"
        },
        {
          "internalType": "uint256",
          "name": "totalFunding",
          "type": "uint256"
        },
        {
          "internalType": "bool",
          "name": "isClosed",
          "type": "bool"
        }
      ],
      "stateMutability": "view",
      "type": "function"
    },
    {
      "inputs": [
        {
          "internalType": "bytes32",
          "name": "issueId",
          "type": "bytes32"
        },
        {
          "internalType": "address",
          "name": "funder",
          "type": "address"
        },
        {
          "internalType": "uint256",
          "name": "amount",
          "type": "uint256"
        }
      ],
      "name": "recordFunding",
      "outputs": [],
      "stateMutability": "nonpayable",
      "type": "function"
    },
    {
      "inputs": [
        {
          "internalType": "string",
          "name": "owner",
          "type": "string"
        },
        {
          "internalType": "string",
          "name": "repo",
          "type": "string"
        },
        {
          "internalType": "uint256",
          "name": "issueNumber",
          "type": "uint256"
        },
        {
          "internalType": "uint256",
          "name": "amount",
          "type": "uint256"
        }
      ],
      "name": "registerIssue",
      "outputs": [
        {
          "internalType": "bytes32",
          "name": "",
          "type": "bytes32"
        }
      ],
      "stateMutability": "nonpayable",
      "type": "function"
    },
    {
      "inputs": [],
      "name": "rewardToken",
      "outputs": [
        {
          "internalType": "contract IERC20",
          "name": "",
          "type": "address"
        }
      ],
      "stateMutability": "view",
      "type": "function"
    }
  ],
  "bytecode": "0x6080604052348015600e575f5ffd5b506040516118e43803806118e4833981016040819052602b9160a8565b6001600160a01b03811660845760405162461bcd60e51b815260206004820152601560248201527f496e76616c696420746f6b656e20616464726573730000000000000000000000604482015260640160405180910390fd5b600480546001600160a01b0319166001600160a01b039290921691909117905560d3565b5f6020828403121560b7575f5ffd5b81516001600160a01b038116811460cc575f5ffd5b9392505050565b611804806100e05f395ff3fe608060405234801561000f575f5ffd5b5060043610610111575f3560e01c806395c5dc7e1161009e578063e0a04adb1161006e578063e0a04adb1461028f578063ef247870146102b9578063f4fcffa4146102cc578063f7c618c1146102f1578063f7de9ee21461031c575f5ffd5b806395c5dc7e14610225578063ad52652a14610238578063ceb8daae1461025c578063dc9d1a681461026f575f5ffd5b8063481e2fc8116100e4578063481e2fc81461019c578063599ca048146101bc57806376322262146101ea578063861a9c99146101fd5780638c11a32e14610212575f5ffd5b80630d4c470814610115578063250cfd711461012c57806331f4fff01461013f57806337508e0014610152575b5f5ffd5b6003545b6040519081526020015b60405180910390f35b61011961013a366004611165565b610354565b61011961014d36600461118f565b61045d565b61018c610160366004611165565b5f828152602081815260408083206001600160a01b038516845260060190915290205460ff1692915050565b6040519015158152602001610123565b6101af6101aa36600461118f565b61047c565b60405161012391906111a6565b6101cf6101ca36600461118f565b6104e6565b60408051938452602084019290925290820152606001610123565b6101196101f83660046112a2565b61053a565b61021061020b366004611316565b61067b565b005b6102106102203660046113d1565b610862565b610119610233366004611404565b610b4f565b61024b61024636600461118f565b610b84565b6040516101239594939291906114a0565b61021061026a366004611165565b610cc2565b61028261027d36600461118f565b610e3f565b60405161012391906114e4565b61011961029d366004611165565b600260209081525f928352604080842090915290825290205481565b6102106102c736600461118f565b610ed0565b6102df6102da36600461118f565b610f9c565b6040516101239695949392919061153d565b600454610304906001600160a01b031681565b6040516001600160a01b039091168152602001610123565b61032f61032a366004611587565b611102565b604080516001600160a01b039094168452602084019290925290820152606001610123565b5f828152602081815260408083206001600160a01b038516845260060190915281205460ff166103bf5760405162461bcd60e51b81526020600482015260116024820152702737ba10309031b7b73a3934b13aba37b960791b60448201526064015b60405180910390fd5b5f8381526020819052604090206004015460ff166104165760405162461bcd60e51b8152602060048201526014602482015273125cdcdd59481b9bdd0818db1bdcd959081e595d60621b60448201526064016103b6565b5f8381526020819052604090206003810154600590910154801580610439575081155b15610448575f92505050610457565b61045281836115a7565b925050505b92915050565b6003818154811061046c575f80fd5b5f91825260209091200154905081565b5f81815260208181526040918290206005018054835181840281018401909452808452606093928301828280156104da57602002820191905f5260205f20905b81546001600160a01b031681526001909101906020018083116104bc575b50505050509050919050565b5f81815260208190526040812060058101548291829182811580159061050f57505f8360030154115b156105275781836003015461052491906115a7565b90505b6003909201549450925090509193909250565b5f5f610547868686610b4f565b5f81815260208190526040902060020154909150156105a85760405162461bcd60e51b815260206004820152601860248201527f497373756520616c72656164792072656769737465726564000000000000000060448201526064016103b6565b5f8181526020819052604090206105bf8782611649565b505f8181526020819052604090206001016105da8682611649565b505f818152602081905260408082206002810187905560038082018790556004909101805460ff19169055805460018101825592527fc2575a0e9e593c00f959f8c92f12db2869c3395a3b0502d05e2516446f71f85b9091018290555181907fa5f8d35aabc35374e5f28a39a48669254b029c3244e02ea9278d0e102c82c9019061066a90899089908990611704565b60405180910390a295945050505050565b5f8281526020819052604081206002015490036106aa5760405162461bcd60e51b81526004016103b690611739565b5f5b815181101561085d575f6001600160a01b03168282815181106106d1576106d1611762565b60200260200101516001600160a01b03161415801561073957505f5f8481526020019081526020015f206006015f83838151811061071157610711611762565b6020908102919091018101516001600160a01b031682528101919091526040015f205460ff16155b15610855575f5f8481526020019081526020015f2060050182828151811061076357610763611762565b6020908102919091018101518254600180820185555f94855283852090910180546001600160a01b0319166001600160a01b03909316929092179091558583529082905260408220845191926006909101918590859081106107c7576107c7611762565b60200260200101516001600160a01b03166001600160a01b031681526020019081526020015f205f6101000a81548160ff02191690831515021790555081818151811061081657610816611762565b60200260200101516001600160a01b0316837f8ede5744ef9e05a2fea6aaf0fe924c6cbd8f93dd463229d1af4d0b86424e815360405160405180910390a35b6001016106ac565b505050565b5f8381526020819052604081206002015490036108915760405162461bcd60e51b81526004016103b690611739565b6001600160a01b0382166108e05760405162461bcd60e51b8152602060048201526016602482015275496e76616c69642066756e646572206164647265737360501b60448201526064016103b6565b5f811161092f5760405162461bcd60e51b815260206004820152601d60248201527f416d6f756e74206d7573742062652067726561746572207468616e203000000060448201526064016103b6565b5f838152602081905260408120600301805483929061094f908490611776565b90915550505f8381526002602090815260408083206001600160a01b038616845290915281205490036109ec575f83815260016020818152604080842081516060810183526001600160a01b038881168252818501888152429483019485528354808801855593885294909620905160039092020180546001600160a01b0319169190951617845590519183019190915551600290910155610ad4565b5f5b5f84815260016020526040902054811015610ad2575f84815260016020526040902080546001600160a01b038516919083908110610a2e57610a2e611762565b5f9182526020909120600390910201546001600160a01b031603610aca575f848152600160205260409020805483919083908110610a6e57610a6e611762565b905f5260205f2090600302016001015f828254610a8b9190611776565b90915550505f848152600160205260409020805442919083908110610ab257610ab2611762565b905f5260205f20906003020160020181905550610ad2565b6001016109ee565b505b5f8381526002602090815260408083206001600160a01b038616845290915281208054839290610b05908490611776565b90915550506040518181526001600160a01b0383169084907fffdd9a7770795d590ebaf9a0a2dab7ecaee7089333a20dd2127b97fe712016019060200160405180910390a3505050565b5f838383604051602001610b65939291906117ac565b6040516020818303038152906040528051906020012090509392505050565b5f60208190529081526040902080548190610b9e906115c6565b80601f0160208091040260200160405190810160405280929190818152602001828054610bca906115c6565b8015610c155780601f10610bec57610100808354040283529160200191610c15565b820191905f5260205f20905b815481529060010190602001808311610bf857829003601f168201915b505050505090806001018054610c2a906115c6565b80601f0160208091040260200160405190810160405280929190818152602001828054610c56906115c6565b8015610ca15780601f10610c7857610100808354040283529160200191610ca1565b820191905f5260205f20905b815481529060010190602001808311610c8457829003601f168201915b50505050600283015460038401546004909401549293909290915060ff1685565b5f828152602081905260408120600201549003610cf15760405162461bcd60e51b81526004016103b690611739565b6001600160a01b038116610d475760405162461bcd60e51b815260206004820152601b60248201527f496e76616c696420636f6e7472696275746f722061646472657373000000000060448201526064016103b6565b5f828152602081815260408083206001600160a01b038516845260060190915290205460ff1615610dba5760405162461bcd60e51b815260206004820152601960248201527f436f6e7472696275746f7220616c72656164792061646465640000000000000060448201526064016103b6565b5f82815260208181526040808320600581018054600180820183559186528486200180546001600160a01b0319166001600160a01b0388169081179091558086526006909201909352818420805460ff191690931790925551909184917f8ede5744ef9e05a2fea6aaf0fe924c6cbd8f93dd463229d1af4d0b86424e81539190a35050565b606060015f8381526020019081526020015f20805480602002602001604051908101604052809291908181526020015f905b82821015610ec5575f848152602090819020604080516060810182526003860290920180546001600160a01b0316835260018082015484860152600290910154918301919091529083529092019101610e71565b505050509050919050565b5f818152602081905260408120600201549003610eff5760405162461bcd60e51b81526004016103b690611739565b5f8181526020819052604090206004015460ff1615610f575760405162461bcd60e51b8152602060048201526014602482015273125cdcdd5948185b1c9958591e4818db1bdcd95960621b60448201526064016103b6565b5f81815260208190526040808220600401805460ff191660011790555182917f7489eb126cc5f04bff1ca65904160e48f5662d9d32d758add511dffcbacf4fb791a250565b6060805f5f5f5f5f5f5f8981526020019081526020015f209050805f018160010182600201546103e8846004015f9054906101000a900460ff166002858054610fe4906115c6565b80601f0160208091040260200160405190810160405280929190818152602001828054611010906115c6565b801561105b5780601f106110325761010080835404028352916020019161105b565b820191905f5260205f20905b81548152906001019060200180831161103e57829003601f168201915b5050505050955084805461106e906115c6565b80601f016020809104026020016040519081016040528092919081815260200182805461109a906115c6565b80156110e55780601f106110bc576101008083540402835291602001916110e5565b820191905f5260205f20905b8154815290600101906020018083116110c857829003601f168201915b505050505094509650965096509650965096505091939550919395565b6001602052815f5260405f20818154811061111b575f80fd5b5f9182526020909120600390910201805460018201546002909201546001600160a01b03909116935090915083565b80356001600160a01b0381168114611160575f5ffd5b919050565b5f5f60408385031215611176575f5ffd5b823591506111866020840161114a565b90509250929050565b5f6020828403121561119f575f5ffd5b5035919050565b602080825282518282018190525f918401906040840190835b818110156111e65783516001600160a01b03168352602093840193909201916001016111bf565b509095945050505050565b634e487b7160e01b5f52604160045260245ffd5b604051601f8201601f1916810167ffffffffffffffff8111828210171561122e5761122e6111f1565b604052919050565b5f82601f830112611245575f5ffd5b813567ffffffffffffffff81111561125f5761125f6111f1565b611272601f8201601f1916602001611205565b818152846020838601011115611286575f5ffd5b816020850160208301375f918101602001919091529392505050565b5f5f5f5f608085870312156112b5575f5ffd5b843567ffffffffffffffff8111156112cb575f5ffd5b6112d787828801611236565b945050602085013567ffffffffffffffff8111156112f3575f5ffd5b6112ff87828801611236565b949794965050505060408301359260600135919050565b5f5f60408385031215611327575f5ffd5b82359150602083013567ffffffffffffffff811115611344575f5ffd5b8301601f81018513611354575f5ffd5b803567ffffffffffffffff81111561136e5761136e6111f1565b8060051b61137e60208201611205565b91825260208184018101929081019088841115611399575f5ffd5b6020850194505b838510156113c2576113b18561114a565b8252602094850194909101906113a0565b80955050505050509250929050565b5f5f5f606084860312156113e3575f5ffd5b833592506113f36020850161114a565b929592945050506040919091013590565b5f5f5f60608486031215611416575f5ffd5b833567ffffffffffffffff81111561142c575f5ffd5b61143886828701611236565b935050602084013567ffffffffffffffff811115611454575f5ffd5b61146086828701611236565b93969395505050506040919091013590565b5f81518084528060208401602086015e5f602082860101526020601f19601f83011685010191505092915050565b60a081525f6114b260a0830188611472565b82810360208401526114c48188611472565b604084019690965250506060810192909252151560809091015292915050565b602080825282518282018190525f918401906040840190835b818110156111e657835180516001600160a01b031684526020808201518186015260409182015191850191909152909301926060909201916001016114fd565b60c081525f61154f60c0830189611472565b82810360208401526115618189611472565b604084019790975250506060810193909352901515608083015260a09091015292915050565b5f5f60408385031215611598575f5ffd5b50508035926020909101359150565b5f826115c157634e487b7160e01b5f52601260045260245ffd5b500490565b600181811c908216806115da57607f821691505b6020821081036115f857634e487b7160e01b5f52602260045260245ffd5b50919050565b601f82111561085d57805f5260205f20601f840160051c810160208510156116235750805b601f840160051c820191505b81811015611642575f815560010161162f565b5050505050565b815167ffffffffffffffff811115611663576116636111f1565b6116778161167184546115c6565b846115fe565b6020601f8211600181146116a9575f83156116925750848201515b5f19600385901b1c1916600184901b178455611642565b5f84815260208120601f198516915b828110156116d857878501518255602094850194600190920191016116b8565b50848210156116f557868401515f19600387901b60f8161c191681555b50505050600190811b01905550565b606081525f6117166060830186611472565b82810360208401526117288186611472565b915050826040830152949350505050565b6020808252600f908201526e125cdcdd59481b9bdd08199bdd5b99608a1b604082015260600190565b634e487b7160e01b5f52603260045260245ffd5b8082018082111561045757634e487b7160e01b5f52601160045260245ffd5b5f81518060208401855e5f93019283525090919050565b5f6117c06117ba8387611795565b85611795565b92835250506020019291505056fea2646970667358221220a0ce00d1cb13eef1ce4e498ce07603c319c532227a4e2ab17311a4b5b6b898fe64736f6c634300081c0033",
  "linkReferences": {},
  "deployedLinkReferences": {},
  "immutableReferences": {},
  "inputSourceName": "project/contracts/issue-tracker.sol",
  "buildInfoId": "solc-0_8_28-8ff7aa2c8731363fd28cb9200064918b1beb1b91"
}